:020000040800F2
:1000000008040020D500000815180008F10D0008AC
:1000100000000000000000000000000000000000E0
:10002000000000000000000000000000D1180008DF
:1000300000000000000000005D180008D318000850
:10004000E7000008E7000008E7000008E7000008F4
:10005000E7000008E7000008E7000008E7000008E4
:10006000E7000008E7000008E7000008E7000008D4
:10007000E7000008E700000800000000E7000008B3
:1000800000000000E7000008000000000000000081
:10009000E700000800000000E7000008E700000893
:1000A000E7000008E7000008E7000008E700000894
:1000B000E7000008E7000008E7000008E700000884
:1000C0000348854600F022FA00480047FD19000861
:1000D000080400200448804704480047FEE7FEE784
:1000E000FEE7FEE7FEE7FEE755190008C10000083D
:1000F00030B50B46014600202022012409E00D46C0
:10010000D5409D4205D31D469540491B2546954047
:1001100040191546521E002DF1DC30BD024670B567
:100120004A40D30FDB0740002DD04A002AD0010EF1
:10013000140E000212020919400A520A8418E5013D
:1001400004465443000A120A2E045043A4194219CB
:10015000200CC543AA18120C0125AD03521C5219DC
:1001600012047F39240400D0521C104301D44000F3
:10017000491EC2B20C06C0092018401C4008802A43
:1001800002D003E0002070BD40084000002900DAE2
:100190000020184370BD0000F0B5074608465840DF
:1001A00087B0C00F049048000E4659004008490827
:1001B000BC1A884105D2384631461E4617460B46C2
:1001C00002465800400810434CD0300D03904005C3
:1001D0005900400D490D0590401A0290402872DAEE
:1001E00018030121000B09050843019004980092AF
:1001F000002805D0019952420020884100920190C8
:10020000029840210A1A0199009800F0BBF80546AF
:100210000C466B4607CB00F0C5F8C0197141039A34
:100220000E0D0023D71756401A467A40164344D085
:10023000049A002A2DD0029A012A039A15DC12058D
:10024000C01A914101263605001C7141D20F059E4E
:10025000D2070093019202962A46234600F003F942
:1002600007B0F0BD38463146FAE71605224A0F4678
:10027000B218C01AB74101210905001C4F410018EE
:100280007F41114618187941E20F10436D196441FE
:1002900013E0E2076D0815436408C2071443039A8C
:1002A00001261205C01A91413605001C7141CE0786
:1002B000400830434908C01851412A46234600F0FF
:1002C000C5F8CDE7FFE7049801224000C117121AD4
:1002D00000238B4104983146C417381AA141EEE738
:1002E00030B40124E407634030BC55E730B4012446
:1002F000E407614030BC4FE70000E0FF41004002EE
:100300000122400AD205090E80187F2901DA002057
:100310007047962903DC9622511AC84070479639D7
:1003200088407047C20FD207400040080BD0C10D73
:100330000723DB01C91840020905400A1143C2081E
:10034000400711437047002001467047CB0FDB0781
:10035000490010B5490802460A4307D00A0D072490
:100360000903E401090B121B002A01DC002010BD67
:10037000C900440F0C43C100E018D205801800F0FA
:1003800024F810BD10B5202A04DB0146203A914024
:10039000002010BD914020239C1A0346E3401943DE
:1003A000904010BD10B5202A06DBCB170846203A36
:1003B0001041C1170B4306E00B461341D0402024E7
:1003C000A21A91400843194610BD002904DA401CC6
:1003D000490001D140084000704770B40024050C6A
:1003E00005D11024000402D1002921D01124050ECA
:1003F00001D100020834050F01D10001241D850F31
:1004000001D18000A41C002801DB4000641C0029ED
:1004100008D020252E1B0D46F540A14000D001211B
:100420002943084301061B1B000ADB1D02D50020DF
:1004300070BC7047DB05181880180029F8DA401CDA
:100440004900F5D170BC40084000704710B5002B42
:1004500008DA0024401C614192185B411A4301D123
:100460004008400010BDF0B51FB482B005460C0036
:1004700003D0084601F098FA02E001F095FA203026
:100480000246009021462846FFF77CFF049B059A10
:1004900004460F4618431143084314D0184610432E
:1004A0001BD0009840210A1A1846059900F040F820
:1004B00005460E46009A05990498FFF763FF084326
:1004C00005D0012004E02046394607B0F0BD0020E9
:1004D000C11705430E432C43374300990E9863051B
:1004E000401A7905E40A00220C43FD0A0A3002D5BD
:1004F00000200146E9E70105101969410C9C0D9D9A
:1005000000196941FFF7A2FFDFE70000064C012553
:10051000064E05E0E36807CC2B430C3C98471034AB
:10052000B442F7D3FFF7D0FDC4600008E4600008D0
:1005300010B5202A04DB0846203AD040002110BD27
:100540000B46D340D0402024A21A914008431946BC
:1005500010BD31B500F0CAF8044600F0C7F80099A4
:10056000001B8842F9D338BDF8B500230124A2E06E
:1005700027469F403A4070D04D68022D01D0122D81
:1005800014D1DD08AD002D1800952D6A5E07AC462C
:10059000F50E0F26AE46AE406546B543AC460E6935
:1005A0007546AE4065462E43009D2E624D68012D76
:1005B00005D0022D03D0112D01D0122D16D1856842
:1005C0000326AC465D00AE46AE406546B543AC463C
:1005D000CE687546AE4065462E43866046680D7906
:1005E000BE43ED06ED0F9D403543456006685F0054
:1005F0000325BD40AE46AE430D79B446AE07B60FF7
:10060000BE4065462E430660C6687546AE438D689B
:10061000BD403543C5604D68ED004BD5294D6E6B2F
:1006200026436E639E08284DB6007519AC46AD682A
:100630009E07360F0F27B740BD4305273F07B84237
:1006400001D1002715E0214FB84201D1012710E068
:100650001F4FB84202D102270BE02BE01D4FB842DA
:1006600001D1032705E01C4FB84201D1052700E066
:100670000627B7402F436546AF60184D2E684F6878
:100680009643FF0300D516432E606E684F6896436D
:10069000BF0300D516436E60AE684F689643FF02F5
:1006A00000D51643AE60EE684F689643BF0200D592
:1006B0001643EE605B1C0A681546DD4000D057E724
:1006C000F8BD00000010024000000140000400508E
:1006D00000080050000C0050001C005000040140B5
:1006E000002A01D08161704781627047014800682B
:1006F000704700000000002002480168491C0160AA
:10070000704700000000002010B506480168402234
:1007100011430160002000F007F800F019F80020F4
:1007200010BD00000020024010B5044607487D219E
:10073000C9000068FFF7DCFC00F03EFB0022214608
:10074000501E00F006F8002010BD0000040000203C
:10075000704710B501F060F810BD0000F8B505460F
:1007600053480E460068C007C00FB0420AD2504836
:10077000016849084900314301600068C007C00FA3
:10078000B0426FD128784B4C800705D5E068F02146
:100790008843A9680843E0602878C00752D0686899
:1007A000022817D0032818D02168012818D08905FD
:1007B000002957DAE168890889000143E160FFF701
:1007C00095FF69680746022912D003291CD0012928
:1007D00026D033E021688903EAE721688901E7E749
:1007E0004907E5E7FFF782FFC11B3348814223D861
:1007F000E0680007800F0228F4D123E0FFF776FFBE
:10080000C11B2D48814217D8E0680007800F0328DC
:10081000F4D117E0FFF76AFFC11B274881420BD8CC
:10082000E0680007800F0128F4D10BE0FFF75EFFBE
:10083000C11B2148814201D90320F8BDE0680007AF
:10084000800FF3D11A480168C907C90FB1420BD90B
:10085000016849084900314301600068C007C00FC2
:10086000B04201D00120F8BD2878400706D5E068E5
:10087000072109028843E9680843E06028780007F7
:1008800007D5E0680721C90288432969C9000843E0
:10089000E06000F01DF8E168084A0906090F515CA4
:1008A000C840074908600020FFF73EFF0020F8BD60
:1008B000002002400010024088130000A8600008D9
:1008C0000400002001480068704700000400002078
:1008D00010B5184AD1680C20084004280BD008280D
:1008E00010D00C2810D050680004410F0120C00324
:1008F000491C884010BD1068C00601D50E4810BDC7
:100900000E4810BD0E4810BD88020E4B000F185C3B
:100910000902D368890F491CDB0301D5084A05E0A9
:100920001268D20601D5044A00E0044A5043FFF79A
:10093000DFFB10BD0010024000093D000024F40060
:1009400000127A00B8600008F8B504460078FE4D41
:10095000C0074AD0E8680007800F022807D0E8687F
:100960000007800F032809D1E868C00306D528686E
:1009700080033AD56068002873D036E001206268B1
:100980000004824203D129680143296011E0052354
:1009900001211B0489049A422A6802D10A432A6071
:1009A000F1E782432A602A6802400092286888435F
:1009B0002860606800280CD0FFF798FE064604E027
:1009C000FFF794FE801B64287ED828688003F7D543
:1009D0000BE0FFF78BFE064604E0FFF787FE801B67
:1009E0006428F1D828688003F7D42078800741D59F
:1009F000E8681F270007800F3F02012807D0E8683A
:100A00000007800F032809D1E868C00306D42868CE
:100A1000400717D5E068012823D113E0E0680028DB
:100A200017D029680922914301432960FFF75EFE30
:100A3000064604E0FFF75AFE801B0228C4D8286847
:100A40004007F7D568682169B84309020843686020
:100A500010E02868400840002860FFF747FE06467F
:100A600005E095E0FFF742FE801B0228ACD828681D
:100A70004007F7D42078C00672D5E868B34E000767
:100A8000800F0AD0E06900282868B1495AD008438D
:100A90002860FFF72BFE074644E02868800502D552
:100AA000E069002874D0606A69683140884212D9D0
:100AB00000F0D6FE0028AFD16868616AB0430843F1
:100AC00068606868000200E0DCE0218C000A09062A
:100AD000084368600FE06968B14301436960686872
:100AE000218C0002000A090608436860606A00F071
:100AF000B7FE002890D1606A410B0120C003491C59
:100B00008840E96809060A0F9249895CC840924901
:100B100008600020FFF708FE22E0FFF7E7FDC01B9A
:100B200002288BD828688005F7D56868616AB043C9
:100B3000084368606868218C0002000A09060843BF
:100B400068600DE088432860FFF7D0FD064604E0AA
:100B5000FFF7CCFD801B022888D828688005F7D4D1
:100B600020787E4E000723D560690028306910D0B8
:100B7000012108433061FFF7B9FD074604E0FFF7A4
:100B8000B5FDC01B02287DD830698007F7D50FE07E
:100B900001E1400840003061FFF7A8FD074604E08E
:100BA000FFF7A4FDC01B02286CD830698007F7D47A
:100BB0002078400760D5A86B0027C00005D4A86B3B
:100BC000012109070843A863012765480168C90591
:100BD00011D40168821511430160FFF787FD009071
:100BE00005E0FFF783FD0099401A64284AD85C4865
:100BF0000068C005F5D55648A268824203D1316924
:100C00000143316111E001218902002A07D0052347
:100C10001B029A4203D132690A433261EFE732691B
:100C200082433261306988433061A06800280ED069
:100C3000FFF75CFD009006E0FFF758FD0099411AB0
:100C4000484881421ED830698005F5D50DE0FFF790
:100C50004DFD009006E0FFF749FD0099411A41481B
:100C600081420FD830698005F5D4002F04D0A96BDC
:100C7000012000078143A9632078800630D53A48D7
:100C8000421400E080E0A169002916D0AB68012180
:100C90000B43AB606B6B0B436B63016A11430162E7
:100CA000FFF724FD064604E0FFF720FD801B022825
:100CB0006AD8A8688007F7D512E0A96849084900F2
:100CC000A960016A91430162FFF710FD064604E046
:100CD000FFF70CFD801B022856D8A8688007F7D4C0
:100CE000A06A002855D0E9680907890F032952D066
:100CF000012636060228286805D0B0432860FFF791
:100D0000F5FC044642E0B0432860FFF7EFFC0746DD
:100D100004E0FFF7EBFCC01B022835D828688001EF
:100D2000F7D4216BE06AEA680843616BFD231B047A
:100D30009A4311430843E860286830432860FFF76E
:100D4000D5FC044617E000000010024000E000005F
:100D500000010000A86000080400002040100240CC
:100D6000007000408813000000000140FFF7BEFC47
:100D7000001B022808D828688001F7D509E0FFF792
:100D8000B5FC001B022801D90320F8BD28688001AA
:100D9000F5D40020F8BD0120F8BD0000042204496C
:100DA0000428086902D09043086170471043FBE7AC
:100DB00000E000E070470000094910B5401E88427D
:100DC00001D9012010BD074C60610321081F00F00C
:100DD00023FD0020A06107202061002010BD00003D
:100DE000FFFFFF0000E000E010B5FFF7E3FF10BDDC
:100DF000FEE7F8B506461C4617460D462A2000F0C9
:100E0000ADFC304600F09CFC384600F099FC2B20ED
:100E100000F0A4FC2846183000F092FC2046183060
:100E200000F08EFC2C2000F099FCF8BD10B51446A3
:100E30000B460246FFF7DDFF204600F081FC10BDA7
:100E4000FFB581B01F4616460C465B1E521E019828
:100E5000FFF7CFFF08E0019D03E00A9800F070FC67
:100E60006D1CB542F9D3641CBC42F4D305B0F0BD8F
:100E700010B50E4886B0C26A01210A43C262C06A38
:100E80000524084005903F20009003200191029125
:100E90002407039069462046FFF766FB01223F21A5
:100EA0002046FFF71DFC06B010BD000000100240F8
:100EB00010B5FFF7DDFF052424070022042120469A
:100EC000FFF70EFC642000F095FD0122042120466E
:100ED000FFF706FC642000F08DFD01222021204652
:100EE000FFF7FEFB642000F085FD112000F036FCCA
:100EF000782000F07FFDB12000F030FC052000F0EC
:100F00003FFC3C2000F03CFC3C2000F039FCB220CF
:100F100000F024FC052000F033FC3C2000F030FC05
:100F20003C2000F02DFCB32000F018FC052000F060
:100F300027FC3C2000F024FC3C2000F021FC052094
:100F400000F01EFC3C2000F01BFC3C2000F018FCD4
:100F5000B42000F003FC032000F012FCC02000F0DD
:100F6000FDFB0E2000F00CFC0E2000F009FC04201C
:100F700000F006FCC12000F0F1FBC52000F000FCF1
:100F8000C22000F0EBFB0D2000F0FAFB002000F087
:100F9000F7FBC32000F0E2FB8D2000F0F1FB2A20DC
:100FA00000F0EEFBC42000F0D9FB8D2000F0E8FB40
:100FB000EE2000F0E5FBC52000F0D0FB062000F09D
:100FC000DFFB362000F0CAFB782000F0D9FB3A2086
:100FD00000F0C4FB552000F0D3FBE02000F0BEFB86
:100FE0000B2000F0CDFB172000F0CAFB0A2000F018
:100FF000C7FB0D2000F0C4FB1A2000F0C1FB192034
:1010000000F0BEFB162000F0BBFB1D2000F0B8FB7B
:10101000212000F0B5FB262000F0B2FB372000F0C5
:10102000AFFB3C2000F0ACFB002000F0A9FB092046
:1010300000F0A6FB052000F0A3FB102000F0A0FBB1
:10104000E12000F08BFB0C2000F09AFB192000F04F
:1010500097FB092000F094FB0D2000F091FB1B2072
:1010600000F08EFB192000F08BFB152000F088FBB0
:101070001D2000F085FB212000F082FB262000F0DF
:101080007FFB392000F07CFB3E2000F079FB002044
:1010900000F076FB092000F073FB052000F070FBE8
:1010A000102000F06DFB782000F0A4FC292000F057
:1010B00055FB10BDFFB5044685B0002000900F9889
:1010C00001944708F808790700D0012140180F99CA
:1010D000203A48430390D0B207900698E21943188B
:1010E00001462046521E5B1EFFF783FE00254CE0A2
:1010F0000F980C2823D0102826D0182828D0202874
:1011000046D10798254980014018405D002602908D
:101110001098002821D001200299B040084204D044
:101120002046089A0699FFF781FE0198641C201A50
:10113000B84225D10698019C401C069024E00798EF
:101140000C2148431649DFE7079816490001DBE701
:101150000798302148431449D6E701200299B0404E
:10116000084201D0089800E00E9800F0E9FA0098D3
:101170003946401CC0B20090FEF7BAFF002909D0E2
:10118000761CF6B2082EC3D36D1C03988542AFD3EC
:1011900009B0F0BD00200090F6E70000C043000851
:1011A0008C270008002C0008F0310008FFB583B040
:1011B000154607460E9E0D9C12E00C2C15D0102CE7
:1011C0001DD0182C25D0202C0DD10C98694651C16A
:1011D0002A463846069B049900F07CF93F19AD1C5D
:1011E00028780028E9D107B0F0BD0C98694651C1B4
:1011F0002A463846069B049900F016F8EEE70C984C
:10120000694651C12A463846069B049900F07EF88B
:10121000E4E70C98694651C12A463846069B049972
:1012200000F0E6F8DAE70000FFB5054689B00020D7
:10123000069013980795C108400700D001200818B0
:1012400013994843049005200024039020461A2156
:1012500048432D490B9A0B5C127893424BD14018AE
:10126000029041780B984078814244D113990A98B2
:101270006A18431801462846521E5B1EFFF7B9FD47
:10128000002735E002980026C0190890149800281D
:10129000089814D081780120B040014204D028463B
:1012A0000C9A0A99FFF7C2FD07986D1C291A13982A
:1012B000814217D10A98079D401C0A9016E0807859
:1012C0000121B140084201D00C9800E0129800F0D2
:1012D00037FA06981399401CC0B20690FEF708FF33
:1012E00000290ED0761CF6B2082ECFD37F1CFFB299
:1012F00004988742C6D30398641C8442A6D30DB0D9
:10130000F0BD00200690F1E7805B0008FFB50546C0
:1013100089B00020069013980795C108400700D0B7
:1013200001200818139948430490052000240390D5
:101330002046222148432D490B9A0B5C1278934298
:101340004BD14018029041780B984078814244D1AB
:1013500013990A986A18431801462846521E5B1EC4
:10136000FFF747FD002735E002980026C0190890D6
:1013700014980028089814D081780120B0400142C8
:1013800004D028460C9A0A99FFF750FD07986D1C67
:10139000291A1398814217D10A98079D401C0A9078
:1013A00016E080780121B140084201D00C9800E09D
:1013B000129800F0C5F906981399401CC0B2069027
:1013C000FEF796FE00290ED0761CF6B2082ECFD37B
:1013D0007F1CFFB204988742C6D30398641C8442E2
:1013E000A6D30DB0F0BD00200690F1E7025C000826
:1013F000FFB5054689B00020069013980795C108EF
:10140000400700D001200818139948430490052094
:101410000024039020464A2148432D490B9A0B5C37
:10142000127893424BD14018029041780B98407843
:10143000814244D113990A986A18431801462846F4
:10144000521E5B1EFFF7D5FC002735E002980026F0
:10145000C019089014980028089814D081780120A9
:10146000B040014204D028460C9A0A99FFF7DEFCEE
:1014700007986D1C291A1398814217D10A98079D65
:10148000401C0A9016E080780121B140084201D04A
:101490000C9800E0129800F053F906981399401C3C
:1014A000C0B20690FEF724FE00290ED0761CF6B2DC
:1014B000082ECFD37F1CFFB204988742C6D303986F
:1014C000641C8442A6D30DB0F0BD00200690F1E765
:1014D000AC5C0008FFB5054689B000200690139863
:1014E0000795C108400700D0012008181399484308
:1014F00004900520002403902046822148432D4972
:101500000B9A0B5C127893424BD1401802904178B1
:101510000B984078814244D113990A986A1843186D
:1015200001462846521E5B1EFFF763FC002735E08C
:1015300002980026C019089014980028089814D022
:1015400081780120B040014204D028460C9A0A99C3
:10155000FFF76CFC07986D1C291A1398814217D16C
:101560000A98079D401C0A9016E080780121B1403E
:10157000084201D00C9800E0129800F0E1F80698BB
:101580001399401CC0B20690FEF7B2FD00290ED0A0
:10159000761CF6B2082ECFD37F1CFFB20498874288
:1015A000C6D30398641C8442A6D30DB0F0BD0020BE
:1015B0000690F1E71E5E0008FFB585B0109F1D463E
:1015C0007E0820491046FEF7A9FDFEF797FE00248D
:1015D000049033E0281B401EC1B20A2000F08CFAB0
:1015E00001460498FEF784FD0A21FEF781FDA81E3E
:1015F0000391844210D100210F9A00920291059923
:101600007043019740182E220E9B0699FFF752FD5A
:10161000641C6D1CE4B2EDB20020029003980F9997
:1016200030300091C2B220460599704301974018AE
:101630000E9B0699FFF73EFD641CE4B2AC42C9D391
:1016400009B0F0BD0000C842FFB585B00026109F6C
:101650001D4678083446039031E0281B401EC1B275
:101660000A2000F049FA01460798FEF741FD0A21D9
:10167000FEF73EFD002E05D1681E844202DA0029E5
:101680000DD0012600200F9A303100920290CAB28C
:10169000039805996043019740180E9B0AE00020CB
:1016A0000F990290009103980599604340180E9B92
:1016B000019720220699FFF7FDFC641CE4B2AC42BE
:1016C000CBD309B0F0BDFFB581B0039A1F46CB194B
:1016D00082180025521E5B1EFFF78BFB002612E0CE
:1016E00000240DE0680000900A99085C00F032F8D0
:1016F0000A9900984018407800F02CF8641C6D1C82
:10170000BC42EFD3761C03988642E9D305B0F0BD06
:10171000FFB583B00D9F144605467E080BE00C997B
:101720000E980197009102902846069B0499FFF7B6
:10173000C1FC7519641C2278002AF0D107B0F0BDF5
:1017400010B504460004000E00F01AF8E0B200F0F4
:1017500017F810BD10B500F013F810BD70B50524D2
:1017600005462407002208212046FEF7B9FF284637
:1017700000F006F8012208212046FEF7B1FF70BDF7
:1017800070B5052605463607002210213046FEF7C3
:10179000A7FF0024002201213046FEF7A1FF280602
:1017A00001D5012200E0002202213046FEF798FF19
:1017B000012211463046FEF793FF6806641C050EB1
:1017C000E4B2082CE6D3012210213046FEF788FF50
:1017D00070BD000030B50E4987B0CA6A01200243CF
:1017E000CA62C96AC40301400190029000940320B8
:1017F000052505912D07039069462846FEF7B4FE9E
:10180000012221462846FEF76BFF07B030BD0000DD
:1018100000100240704700008307FF22DB0E9A4051
:101820008907090E994000280BDA0007000F0838D5
:10183000830808489B001818C36993430B43C3618E
:101840007047830804489B001B181868904308439E
:101850001860704700ED00E000E400E07047000011
:1018600070B517490023CA681206120F18D18A6B87
:10187000154CD500134A02D51268224009E08E6B40
:1018800001252D072E438E6312688E6B2240AE43D6
:101890008E63A24204D103218903884200D101232F
:1018A0000A48016849084900194301600068C007F7
:1018B000C00F984201D0012070BD002070BD000013
:1018C000001002400070004000180000002002409C
:1018D000704710B5FEF710FFFFF786FA10BD000045
:1018E00010B51B4894B001680322D2029143C21480
:1018F000891801600220009001210A9003914004A0
:101900000C900001102100240D900B940491684666
:10191000FFF71AF80F200E9003200F9010941194E7
:10192000012112940EA8FEF719FFFEF7CBFF7D21CF
:10193000C900FEF7DDFBFFF73FFA0420FFF72EFAA0
:1019400000221146501EFEF704FF14B010BD000027
:101950000070004010480168821511430160C168A1
:101960000E4A1140C16001680D4A11400160816852
:101970004908490081600168012292049143016095
:10198000C168FD2212049143C16000210161054933
:10199000C003886070470000001002400C40FF88C0
:1019A000F6FFF6FE00ED00E02021020C01D0102130
:1019B0001046020A01D010460839020901D010462B
:1019C000091F820801D01046891E420801D0881ED6
:1019D0007047081A704702E008C8121F08C1002AA1
:1019E000FAD170477047002001E001C1121F002AA0
:1019F000FBD1704710B5FEF7ACFD10BD1FB5002040
:101A00000390FEF781FEFFF76BFFFFF7E3FEFFF7A2
:101A10004FFA2E4C00215023A02208460094FFF7D5
:101A20000FFA012105200022C9030007FEF758FE26
:101A3000002710251F26F602334625A20021282064
:101A4000029701950094FFF7B1FB334623A21421BE
:101A50000A20029701950094FFF75AFE0323A02263
:101A600014213A20009602950194FFF7EDFD3346CC
:101A70001CA228210A20029701950094FFF748FE36
:101A80000323502228213A20009602950194FFF763
:101A9000DBFD04230096029501943C210A20039A61
:101AA000FFF78AFD0398FEF73DFC104A104BFEF746
:101AB00073FBFEF74BFC03900E48282300901A4658
:101AC00014216420FFF7FFFDB6E70000FFFF0000D0
:101AD000D6D0BEB0D4B0B5E7D7D300004C43445FF6
:101AE000573A00004C43445F483A0000295C8FC2DB
:101AF000F528BC3F0C1B00080246012000E05043C3
:101B00000B46491EC9B2002BF9D17047FFFFFFFFFA
:101B1000FFFFFFFFFFFFFFFFFFFFFFFFFFFFFFFFD5
:101B2000FFFFFFFFFFFFFFFFFFFFF7BEFFFFFFDE2F
:101B3000C6388C926B8E6B6E7C10AD96E73CFFFFC7
:101B4000FFFFFFFFFFFFFFFFFFFFFFFFFFFFFFFFA5
:101B5000FFFFFFFFFFFFFFFFFFFFFFFFFFFFFFFF95
:101B6000FFFFFFFFFFFFFFFFFFFFFFFFFFFFFFFF85
:101B7000FFFFFFFFFFFFFFFFFFFFEF5D9D15634FBF
:101B8000426C320A298819461925214531E86B8EA5
:101B9000C638FFFFFFFFFFFFFFFFFFFFFFFFFFFF55
:101BA000FFFFFFFFFFFFFFFFFFFFFFFFFFFFFFFF45
:101BB000FFFFFFFFFFFFFFFFFFFFFFFFFFFFFFFF35
:101BC000FFFFFFFFFFFFFFFFA53653104B105351E0
:101BD0004B0F3A6C31E92167192510E408A3006224
:101BE000088352CBD69AFFFFFFFFFFFFFFFFFFFFE7
:101BF000FFFFFFFFFFFFFFFFFFFFFFFFFFFFFFFFF5
:101C0000FFFFFFFFFFFFFFFFFFFFFFFFFFFFFFFFE4
:101C1000FFFFFFFFE73C637063B37CB863F54311DC
:101C2000324D29EA218819261905190511041104D4
:101C300010E4008308A38C72FFFFFFFFFFFFFFFF8C
:101C4000FFFFFFFFFFFFFFFFFFFFFFFFFFFFFFFFA4
:101C5000FFFFFFFFFFFFFFFFFFFFFFFFFFFFFFFF94
:101C6000FFFFDEDB3A4B42F06C354B5432B12A2E8B
:101C700021EB21A91967190511041104110411049C
:101C80001104190510E4004273AFFFFFFFFFFFFFCF
:101C9000FFFFFFFFFFFFFFFFFFFFFFFFFFFFFFFF54
:101CA000FFFFFFFFFFFFFFFFFFFFFFFFFFFFFFFF44
:101CB000EF5D3209324C4B10328F2A4F2A2E19CC4D
:101CC00019892189194719051104110410C410C478
:101CD00011041104110410E400428431FFFFFFFFDE
:101CE000FFFFFFFFFFFFFFFFFFFFFFFFFFFFFFFF04
:101CF000FFFFFFFFFFFFFFFFFFFFFFFFFFFFFFFFF4
:101D000052EC1947324C2A0B21EC21EC220C5B914E
:101D10004AEE11061926190410E410E429A72166D9
:101D200008A319051104110410E40082BDF7FFFF98
:101D3000FFFFFFFFFFFFFFFFFFFFFFFFFFFFFFFFB3
:101D4000FFFFFFFFFFFFFFFFFFFFFFFFFFFFA535C7
:101D5000088321882188218921AA218A426B8C71DC
:101D6000FFFF8C720883110408C44229DEFBEF5D7B
:101D70005AEC0883110411041104088331E8FFDFD1
:101D8000FFFFFFFFFFFFFFFFFFFFFFFFFFFFFFFF63
:101D9000FFFFFFFFFFFFFFFFFFFFFFFFF7BE31C7A2
:101DA00010C4192519261947194729A8528A4A2803
:101DB000AD55FFFF31E808A319056B4D6B4DFFFFD3
:101DC000EF7D214510C41104110411040062AD76A9
:101DD000FFFFFFFFFFFFFFFFFFFFFFFFFFFFFFFF13
:101DE000FFFFFFFFFFFFFFFFFFFFFFFFB596006252
:101DF000110419041105190508C44A8BB5B6EF5D25
:101E0000BDF7FFFF6B8E006242295AAA4208FFFF0E
:101E1000FFFF52CC088311041104110408A352AD32
:101E2000FFFFFFFFFFFFFFFFFFFFFFFFFFFFFFFFC2
:101E3000FFFFE71CFFFFFFFFFFFFFFFF634E006296
:101E400011041104110410E40062638EFFFFFFFF10
:101E5000FFFFFFFF73CF00019CF3632CB596FFFFDC
:101E6000FFFF5B2D008311041104110410E42167AE
:101E7000EF3DFFFFFFFFFFFFFFFFFFFFBDF8B5B71F
:101E8000EF9E52CB94B3FFFFFFFFFFDF31E808A3C3
:101E9000110411041104110408A34249F7FFF7FFCC
:101EA000FFFFFFFF4A6A00018472FFFFFFFFF7FF99
:101EB000EFDF3A0908A311041104110411041105FC
:101EC000BE18FFFFFFFFFFFFFFFFFFFF7BF0006279
:101ED00031E831C70041A535FFFFEF5D214610C451
:101EE000110411041104110410E408A39D76F7FFF6
:101EF000FFFFADB708A308A331C7E79EF7FFF7FFC1
:101F0000A57608A310E411041104110411051105AC
:101F1000A535FFFFFFFFFFFFFFFFFFFFDEDB29A768
:101F2000008310C410C410C4E71CEF9E110510E418
:101F30001104110411041104190408C410E56BD133
:101F40006BD108C5006408A50043322B9D7784B38C
:101F5000192510C4110411041104110419250926AE
:101F60009D35FFFFFFFFFFFFFFFFFFFFFFFF73AF89
:101F700000621904190500825B0D9B8E1062110529
:101F800011041104190410E40085110539C45A81A3
:101F90007B409C22AC43A4039B837282498218C27B
:101FA00000A400C510E419041104190519471167AC
:101FB0005AECFFBEFFFFFFFFFFFFFFFFFFDFDEDB8F
:101FC00010C410E41104110518A4C001888300E4B2
:101FD0001905190408C521448343D523FE42FEE4B4
:101FE000FF27FF07FEA4FE64FE03FDA3FCE2EC4214
:101FF000B383622410E508C41904192619A821879F
:102000009000BCD3FFFFFFFFFFFFFFFFFFDFFFFFDD
:102010007C100042190511052883D001F84448A31B
:1020200000E408C55A44ED02FDE2FE02FE66FF74BC
:10203000FFB8FF73F6E7F6A6F645F5A4FCC3FC620D
:10204000FCC2FCC2CBE349C411061988018790A4E5
:10205000F8019AECFFFFFFFFFFFFFFFFFFFFFFFF0D
:10206000F7BE31E8008309054082C001F823F085FE
:1020700048A300A45A44FD02CC23DCC2FE04FE287F
:10208000F648F646F624F5E4FD64FCE3FC62FCC287
:10209000E402DC02FCE27AA40148016778C4F82477
:1020A000F802B084E77DFFFFFFFFFFFFFFFFFFFFA8
:1020B000FFFFDEDB192500A338C4E002D822F84474
:1020C000F8A678A400632143728339839B82F521AB
:1020D000FD61FD22FCE2FCA2FC42FC42FC42AB2280
:1020E000418392C352040126192598A4F844F82389
:1020F000F802D0A4EF9EFFFFFFFFFFFFFFFFFFFFEF
:10210000FFFFFFFFD69A298700A5B843F822E023F6
:10211000F865F8E8C9074883004200A300842963F2
:102120007AA2B362CBA2D362BB028A82398300A4B3
:1021300000E500E508E560C4D864F844F824F82315
:10214000F8028883C6DBFFFFFFFFFFFFFFFFFFFFF3
:10215000FFFFFFFFFFFFE73D5B503108E823F84337
:10216000F044F865F909F9ABD189890648A318420A
:10217000000200420061008200620062008320A32E
:1021800050C488A5D885F865F844F844F823F823A6
:10219000D003108229C7EF5DFFFFFFFFFFFFFFFFA6
:1021A000FFFFFFFFFFFFFFFFFFFF326C38A5D802E4
:1021B000F823F865F866F8A7F94AFA0CFA4DEA4CE4
:1021C000D20BB9A9B168A947B127B907D107E8E788
:1021D000F8C7F8A7F865F865F844F823F803D002C3
:1021E00028A3090508C45AECFFFFFFFFFFFFFFFF0C
:1021F000FFFFFFFFFFFFFFFFDEFB190500C441A744
:10220000C0E6F803F886F8A7F887F886F8C7F92932
:10221000F98AF9ABF9ABF98BF96AF929F908F8C72A
:10222000F8A6F886F865F864F823F002B1062925C7
:1022300000E410E4192519259D14FFFFFFFFFFFF9F
:10224000FFFFFFFFFFFFFFFFAD960062088295359D
:10225000CEBAA28BD044F825F887F8A7F8C7F8A71C
:10226000F887F886F886F886F887F8A7F8A7F8A61A
:10227000F885F865F864F024B864930DB6BB63CFB5
:102280000883110410E421663A49EF5DFFFFFFFF68
:10229000FFFFFFFFFFFFFFFF94D3004210E4CEBB20
:1022A000FFFFE7BEB576AACCC107E045F845F84682
:1022B000F866F886F886F886F886F865F845F865D1
:1022C000E865D044A84388019082D73CEFFF95553C
:1022D0000883110411041905194694B3FFFFFFFF89
:1022E000FFFFFFFFFFFFFFFF94B300412186DF5D8B
:1022F000FFFFFFFFFFFFE7DFC67AB4D3B34EC22A6A
:10230000D168E0E6E8A6E8A5E8A5D8E6C988A90668
:10231000A822A802A000C800D800E5F7E7FFADF8A2
:1023200010C410E4110410E411054A8BFFFFFFFFF5
:10233000FFFFFFFFFFFFFFFFA555004129A7DF5D5E
:10234000F7FFFFFFFFFFFFFFFFFFFFFFEFFFDF7D57
:10235000CEDBCE59CDF8CDD7C5F7CE79BEFBA2AB3B
:10236000F003F845D042E843F000D472DFFFAE3905
:1023700010E410E4110410E411052987FFFFFFFFAA
:10238000FFFFFFFFFFFFFFFFCE5908832146D71C49
:10239000F7FFFFFFFFFFFFFFFFFFFFFFFFFFFFFF55
:1023A000FFFFFFFFFFFFFFFFFFFFFFFFEFFFBA8B06
:1023B000F804F845E062F044F800DB8EDFFFA5F892
:1023C00010C410E410E4110410E41925FFFFFFFF0E
:1023D000FFFFFFFFFFFFFFFFF7BE29870883B63926
:1023E000F7FFF7DFFFFFFFFFFFFFFFFFFFFFFFFF2D
:1023F000FFFFFFFFFFFFFFFFFFFFFFFFE7BEBA4A40
:10240000F803F845F864F844F800E36ED7FF8CF45D
:102410000883110410E410E410E41905FFFFFFFF26
:10242000FFFFFFFFFFFFFFFFFFFF73EF000084725E
:10243000EFFFEFBEFFDFFFFFFFFFFFFFFFFFFFFF2D
:10244000FFFFFFFFFFFFFFFFFFFFFFFFE7DFBA8B8D
:10245000F803F845F845F823F800D4D3D7FF5B4ECE
:1024600000213A29A555088310C41925FFFFFFFF55
:10247000FFFFFFFFFFFFFFFFFFFFDEFB08A331E8C9
:10248000DF9EE79EEFBFFFFFFFFFFFFFFFFFFFFFA6
:10249000FFFFFFFFFFFFFFFFFFFFFFFFF7FFBC5145
:1024A000E002F803F003E043C2ECCF7EBEFC21461D
:1024B000002194D3FFFF845100002987FFFFFFFF15
:1024C000FFFFFFFFFFFFFFFFFFFFFFFF8451000043
:1024D0008CF4EFFFE79EEFBFFFDFFFFFFFFFFFFF83
:1024E000FFFFFFFFFFFFFFFFFFFFFFFFFFFFDF3DDE
:1024F000BD55BC52BC72B5B7C75DDFFF6BF00000C5
:102500003A09F7BFFFFFFFFF9D14A555FFFFFFFF2F
:10251000FFFFFFFFFFFFFFFFFFFFFFFFFFFF4AACD3
:1025200008A4BEBBE7DFE77EEFBEF7DFFFDFFFFFFC
:10253000FFFFFFFFFFFFFFFFFFFFFFFFFFDFF7DFF3
:10254000EFFFDFDFD7BFD79EDFDFA5D808831126D7
:10255000D6DBFFFFFFFFFFFFFFFFFFFFFFFFFFFFD8
:10256000FFFFFFFFFFFFFFFFFFFFFFFFEE79DC8BA9
:10257000312121A9CF3DDFBFDF7EE79EEFBEEFBF58
:10258000F7DFF7DFF7DFF7DFF7DFEFBFEFBEE79E3D
:10259000DF7ED75ED75EDFDFB69A19260842A3ED4D
:1025A000FFBFFFFFFFFFFFFFFFFFFFFFFFFFFFFF7B
:1025B000FFFFFFFFFFFFFFFFFFFFDD74DBC0FE003B
:1025C000EE4242022189B67BDFDFD77EDF7EDF7EEF
:1025D000E79EE79EE79EE79EE79EDF7EDF7ED75D74
:1025E000D75DDF9EE7FFA5F8110718E3C502FD6080
:1025F000D3E6EEDBFFFFFFFFFFFFFFFFFFFFFFFF65
:10260000FFFFFFFFFFFFFFFFF79EBA84FCC1FE4202
:10261000FE82FEA2838121457474C75EDFDFD77E10
:10262000D75ED75DD75ED75ED75DD75DD75EDF9EBD
:10263000E7FFC73D63F108845242E626FF29FE8684
:10264000F3E0C36AFFFFFFFFFFFFFFFFFFFFFFFF96
:10265000FFFFFFFFFFFFFFFFDE18D2C1FDA2FE223A
:10266000FE42FE42FE62D4E26A4142497453A63BF6
:10267000C73ED7BFD7BFD7BFDFBFD7BFC73EA61A9A
:1026800063F229A74182B422FE62FE83FEAAFF0FF5
:10269000FD67BA63EF3CFFFFFFFFFFFFFFFFFFFF98
:1026A000FFFFFFFFFFFFFFFFE69AD280FD21FDC283
:1026B000F5E2F5C2F582FD82FD62DC619B216A8450
:1026C0006AE9632C63AF7411636E632C5A895204F8
:1026D0007A81CBC2FCE2FD62FD82FDC2FDC2FDE457
:1026E000FD24CA62E71CFFFFFFFFFFFFFFFFFFFFA4
:1026F000FFFFFFFFFFFFFFFFFFFFCCB1D281F3C061
:10270000FCC1FD02FD02FCE2FCC2FCC2FC81FB80BC
:10271000C9C081A4AD35CE599C718121DA00FBA1DD
:10272000FC82FCA2FC82FCA2FD02FD22FCE2FC0079
:10273000DA60CC90FFFFFFFFFFFFFFFFFFFFFFFF0F
:10274000FFFFFFFFFFFFFFFFFFFFFFFFDE59C40D8D
:10275000CB06D2E4DB03DB03DAE3D2C3C2A4B309C2
:10276000BCD2F79EFFFFFFFFFFFFE6FBB40EBAA649
:10277000D283E2E3EB02EB22E322DB03D2E4C36A7F
:10278000D5B6FFFFFFFFFFFFFFFFFFFF00000000C8
:102790000000000000000000000004040404040025
:1027A0000004000014140A000000000000000000F3
:1027B00000000A0A1F0A0A1F0A0A000000040E1578
:1027C00005060C14150E0400000012150D152E2C14
:1027D0002A1200000000040A0A3615152916000006
:1027E00002020100000000000000000010080804C0
:1027F0000404040408081000020404080808080877
:102800000404020000000004150E0E150400000070
:1028100000000008083E080800000000000000005A
:10282000000000000202010000000000003F000064
:102830000000000000000000000000000002000096
:1028400000201010080804040202010000000E110C
:1028500011111111110E00000000040604040404FB
:10286000040E000000000E1111080402011F0000F8
:1028700000000E11100C1010110E00000000080CCA
:102880000C0A091F081C000000001F01010F111095
:10289000110E000000000C12010D1311110E0000AA
:1028A00000001E10080804040404000000000E11BB
:1028B000110E1111110E000000000E111119161049
:1028C00009060000000000000400000000040000F1
:1028D00000000000000400000004040000001008D4
:1028E0000402020408100000000000003F003F0046
:1028F000000000000000020408101008040200009C
:1029000000000E11110804040004000000001C2245
:10291000292D2D1D221C0000000004040C0A0A1E93
:102920001233000000000F12120E1212120F0000DC
:1029300000001E1101010101110E000000000F1224
:1029400012121212120F000000001F120A0E0A02C9
:10295000121F000000001F120A0E0A0202070000E8
:1029600000001C1201013911120C0000000033128A
:10297000121E12121233000000001F04040404048B
:10298000041F000000003E0808080808080809079E
:10299000000037120A060A12123700000000070270
:1029A00002020202223F000000003B1B1B1B151508
:1029B0001535000000003B1216161A1A12170000F7
:1029C00000000E1111111111110E000000000F1264
:1029D000120E02020207000000000E111111111761
:1029E000190E180000000F12120E0A121237000002
:1029F00000001E1101060810110F000000001F1535
:102A000004040404040E0000000033121212121217
:102A1000120C000000003312120A0A0C0404000019
:102A20000000151515150E0A0A0A000000001B0A01
:102A30000A04040A0A1B000000001B0A0A0A040414
:102A4000040E000000001F0908040402121F000009
:102A50001C0404040404040404041C000002020412
:102A600004040808081010000E08080808080808E0
:102A700008080E00040A000000000000000000002A
:102A800000000000000000000000003F0204000001
:102A9000000000000000000000000000000C121CFC
:102AA000123C000000030202020E1212120E00007D
:102AB00000000000001C1202120C00000018101090
:102AC000101C1212123C000000000000000C121E2C
:102AD000021C000000182404041E0404041E00004C
:102AE00000000000003C120C021C221C0003020229
:102AF000020E121212370000000404000006040443
:102B0000040E000000080800000C08080808080768
:102B100000030202021A0A060A1300000007040456
:102B200004040404041F000000000000000F151539
:102B30001515000000000000000F121212370000EF
:102B400000000000000C1212120C00000000000037
:102B5000000F1212120E020700000000001C1212D9
:102B6000121C103800000000001B060202070000C3
:102B700000000000001E020C101E000000000004F7
:102B8000041E0404041C000000000000001B1212BC
:102B9000123C000000000000001B0A0A04040000B0
:102BA000000000000015150E0A0A000000000000D9
:102BB000001B0A040A1B0000000000000033121270
:102BC0000C08040300000000001E0804041E00009E
:102BD00018080808080C0808080818000808080859
:102BE000080808080808080806040404040804047F
:102BF00004040600160900000000000000000000A8
:102C000000000000000000000000000000000000C4
:102C1000000000080808080808080000181800004C
:102C200000486C24120000000000000000000000BA
:102C30000000002424247F1212127F1212120000BE
:102C40000000081C2A2A0A0C1828282A2A1C08080E
:102C500000000022251515152A585454542200004E
:102C60000000000C1212120A76252911916E000044
:102C70000006060403000000000000000000000041
:102C80000040201010080808080808101020400014
:102C900000020408081010101010100808040200A8
:102CA0000000000008086B1C1C6B080800000000F6
:102CB00000000000080808087F0808080800000055
:102CC00000000000000000000000000006060403F1
:102CD0000000000000000000FE00000000000000F6
:102CE00000000000000000000000000006060000D8
:102CF0000000804040202010100808040402020058
:102D0000000000182442424242424242241800007D
:102D1000000000080E08080808080808083E00001F
:102D20000000003C4242422020100804427E000085
:102D30000000003C4242201820404042221C00007B
:102D4000000000203028242422227E202078000049
:102D50000000007E0202021A26404042221C0000AF
:102D6000000000382402021A2642424224180000C1
:102D70000000007E22221010080808080808000041
:102D80000000003C4242422418244242423C0000DF
:102D9000000000182442424264584040241C0000B5
:102DA00000000000000018180000000018180000C3
:102DB00000000000000000080000000000080804F7
:102DC0000000004020100804020408102040000009
:102DD0000000000000007F0000007F0000000000F5
:102DE0000000000204081020402010080402000027
:102DF0000000003C4242464020101000181800001D
:102E00000000001C225A555555552D42221C000029
:102E10000000000808181414243C224242E7000075
:102E20000000001F2222221E22424242221F0000D6
:102E30000000007C4242010101010142221C00000D
:102E40000000001F2242424242424242221F000032
:102E50000000003F4212121E12120242423F0000C6
:102E60000000003F4212121E12120202020700006E
:102E70000000003C2222010101712122221C0000DD
:102E8000000000E7424242427E42424242E70000E6
:102E90000000003E0808080808080808083E00006E
:102EA0000000007C10101010101010101010110FE6
:102EB0000000007722120A0E0A1212222277000066
:102EC000000000070202020202020202427F00002A
:102ED00000000077363636362A2A2A2A2A6B000066
:102EE000000000E346464A4A5252526262470000DE
:102EF0000000001C2241414141414141221C00008F
:102F00000000003F424242423E020202020700002D
:102F10000000001C2241414141414D53321C6000E0
:102F20000000003F4242423E1212222242C70000ED
:102F30000000007C4242020418204042423E000051
:102F40000000007F4908080808080808081C00005D
:102F5000000000E74242424242424242423C0000FC
:102F6000000000E74242222424141418080800003C
:102F70000000006B4949494955553622222200007C
:102F8000000000E7422424181818242442E7000017
:102F9000000000772222141408080808081C00000A
:102FA0000000007E2120101008040442423F00006F
:102FB00000780808080808080808080808087800C1
:102FC00000000202040408080810102020204040DD
:102FD000001E1010101010101010101010101E00F5
:102FE0000038440000000000000000000000000065
:102FF000000000000000000000000000000000FFD2
:1030000000060800000000000000000000000000B2
:10301000000000000000003C4278444242FC0000F6
:10302000000000030202021A26424242261A000051
:103030000000000000000038440202024438000092
:1030400000000060404040784442424264D80000A2
:10305000000000000000003C427E0202423C0000F2
:10306000000000F08808087E08080808083E0000F4
:10307000000000000000007C22221C023C42423C76
:10308000000000030202023A4642424242E70000C8
:103090000000000C0C00000E08080808083E0000A4
:1030A0000000003030000038202020202020221E88
:1030B0000000000302020272120A161222770000B8
:1030C0000000000E0808080808080808083E00006C
:1030D000000000000000007F9292929292B70000E0
:1030E000000000000000003B4642424242E7000070
:1030F000000000000000003C42424242423C00000E
:10310000000000000000001B26424242221E02076F
:10311000000000000000007844424242447840E051
:1031200000000000000000774C040404041F0000AD
:10313000000000000000007C42023C40423E0000D3
:10314000000000000008083E0808080808300000D9
:1031500000000000000000634242424262DC0000C6
:1031600000000000000000E74224241408080000CA
:1031700000000000000000EB4949555522220000E4
:10318000000000000000007624181818246E0000CB
:1031900000000000000000E742242414180808077B
:1031A000000000000000007E22100808447E00009D
:1031B00000C0202020202010202020202020C0001F
:1031C00010101010101010101010101010101010FF
:1031D000000608080808081008080808080806007B
:1031E0000C32C200000000000000000000000000DF
:1031F00000000000000000000000000000000000CF
:1032000000000000000000000000000000000000BE
:1032100000000000000000000000000000000000AE
:10322000000000000000000060006000600060001E
:1032300060006000600040002000200020000000CE
:10324000000000006000600060000000000000005E
:10325000000000006006600630039801880044000A
:10326000000000000000000000000000000000005E
:10327000000000000000000000000000000000004E
:1032800000000000000000001002100210021002F6
:10329000FE07FE0708020801080108010801FE07F1
:1032A000FE07040104010401040100000000000005
:1032B00000000000000040004000F00158034C03F3
:1032C000CC034C0058007000E000C001C001400376
:1032D0004C035C034C034801F00040004000000038
:1032E00000000000000000000E010A0191009100A2
:1032F0009100510051003A00AE03A0025004500466
:1033000048044804480484028403000000000000CC
:10331000000000000000000038006C006C006C0031
:103320006C006C002C0098071C011A01330133015A
:103330006301E300C308C6093C0700000000000069
:10334000000000000C001C00100010000800040029
:10335000000000000000000000000000000000006D
:10336000000000000000000000000000000000005D
:103370000000000000040002000180008000400006
:10338000400020002000200020002000200020001D
:1033900040004000800080000001000200040000A6
:1033A00000000000020004000800100010002000CF
:1033B000200040004000400040004000400040002D
:1033C000200020001000100008000400020000008F
:1033D0000000000000000000000000004000C000ED
:1033E0004000460C4E0FD001F0015E0F460C40002D
:1033F000400040000000000000000000000000004D
:10340000000000000000000000000000000040007C
:103410004000400040004000FE0F400040004000DF
:10342000400040000000000000000000000000001C
:10343000000000000000000000000000000000008C
:10344000000000000000000000000000000000007C
:10345000000000000C001C00100010000800040018
:10346000000000000000000000000000000000005C
:103470000000000000000000FE0700000000000047
:10348000000000000000000000000000000000003C
:10349000000000000000000000000000000000002C
:1034A000000000000000000000000000000000001C
:1034B000000000001C001C001C00000000000000B8
:1034C00000000000000400060002000300010001EB
:1034D00080008000400040006000200020001000BC
:1034E0001000080008000C000400060002000000A4
:1034F00000000000000000000000F00098010C0334
:103500000C03060606060606060606060606060658
:1035100006060C030C039801F000000000000000F8
:103520000000000000000000000040007C0060007F
:10353000600060006000600060006000600060008B
:103540006000600060006000FC03000000000000FC
:1035500000000000000000000000F80084010203E9
:1035600006030603000300018001C0006000200084
:103570001000080204020602FE0300000000000022
:10358000000000000000000000007800C600860176
:10359000860180018001C0007000800100010003ED
:1035A0000003060306038601F80000000000000087
:1035B0000000000000000000000080018001C00148
:1035C000A001A00190018801880184018201FE0F01
:1035D0008001800180018001E00700000000000000
:1035E00000000000000000000000FC0304000400D4
:1035F000040004000400F4008C0104030003000331
:103600000603060382018401F800000000000000A8
:1036100000000000000000000000E00118030C039F
:103620000C0004000600E60116030E060606060658
:10363000060604060C021803F0000000000000005B
:1036400000000000000000000000F8070C06040263
:1036500004010001000180008000400040004000A3
:10366000600060006000600060000000000000007A
:1036700000000000000000000000F8010C03060636
:10368000060606060C021C03F000C8010C03060621
:103690000606060606060C03F00100000000000006
:1036A00000000000000000000000F0000C010C030E
:1036B000060206060606060606078C0678060006BB
:1036C000000300030C018C017800000000000000E2
:1036D00000000000000000000000000000000000EA
:1036E00000000000E000E000E0000000000000003A
:1036F00000000000E000E000E0000000000000002A
:1037000000000000000000000000000000000000B9
:1037100000000000600060000000000000000000E9
:103720000000000000006000600040002000200059
:103730000000000000000000000400020001800002
:1037400040002000100008000400080010002000C5
:1037500040008000000100020004000000000000A2
:103760000000000000000000000000000000000059
:1037700000000000FE07000000000000FE0700003F
:103780000000000000000000000000000000000039
:1037900000000000000000000400080010002000ED
:1037A00040008000000100020004000200018000CF
:1037B000400020001000080004000000000000008D
:1037C00000000000000000000000E0031806040CE8
:1037D000040C0C0C0C0C0007800140004000400061
:1037E00000000000E000E000E00000000000000039
:1037F0000000000000000000E00018030C02CC05EF
:1038000064056605A605B604B604B604B604B60299
:10381000E4010C040C021803F0000000000000009A
:103820000000000000000000000060006000500088
:10383000D00090009000880088010801F80104037E
:1038400004030402020202060F0F00000000000041
:1038500000000000000000000000FE008C030C03CC
:103860000C030C030C038C01FC000C030C020C0673
:103870000C060C060C060C03FE0100000000000004
:1038800000000000000000000000E00318030C0628
:103890000C040404060006000600060006000600EC
:1038A00006040C040C021803F000000000000000E5
:1038B000000000000000000000007F008C010C03ED
:1038C0000C030C060C060C060C060C060C060C066B
:1038D0000C060C030C038C017F00000000000000AC
:1038E00000000000000000000000FF0306030604C3
:1038F0000604060086008600FE008600860086001C
:103900000600060406040602FF0300000000000093
:1039100000000000000000000000FF030603060492
:103920000604060086008600FE00860086008600EB
:1039300006000600060006001F0000000000000050
:1039400000000000000000000000F00018010C0260
:103950000C0204020600060006000600C60F06035D
:1039600006030C030C031803F00000000000000025
:10397000000000000000000000000F0F0606060611
:103980000606060606060606FE07060606060606DE
:1039900006060606060606060F0F000000000000D9
:1039A00000000000000000000000FC036000600058
:1039B0006000600060006000600060006000600007
:1039C0006000600060006000FC0300000000000078
:1039D00000000000000000000000F807C000C00068
:1039E000C000C000C000C000C000C000C000C000D7
:1039F000C000C000C000C000C000C60066003C009F
:103A000000000000000000000000CF038601C60097
:103A100046002600160036002E006E004600C60046
:103A200086008601060106038F07000000000000E3
:103A3000000000000000000000001F00060006005B
:103A40000600060006000600060006000600060046
:103A50000600060406040602FF0300000000000042
:103A60000000000000000000000007078603860336
:103A70008E038E034E034E034A035A035A033A033E
:103A800032033203320312038707000000000000F4
:103A9000000000000000000000008E0F0C021C025D
:103AA0001C0234023402640264024402C40284022E
:103AB00084038403040304031F02000000000000C9
:103AC00000000000000000000000F00098010C035E
:103AD0000C02060606060606060606060606060684
:103AE00006060C020C039801F00000000000000024
:103AF00000000000000000000000FF0006030606B2
:103B000006060606060606068603FE0006000600F2
:103B100006000600060006001F000000000000006E
:103B200000000000000000000000F00098010C03FD
:103B30000C02060606060606060606060606060623
:103B400076064C02CC039801F000800700030000C9
:103B500000000000000000000000FF010603060650
:103B60000606060606060603FE004600C600860098
:103B700086010603060306060F0E00000000000083
:103B800000000000000000000000F8020C03060224
:103B9000060206000E003C00F800E0038003000768
:103BA0000206020606060C03F001000000000000F9
:103BB00000000000000000000000FE076204610831
:103BC00061086000600060006000600060006000EC
:103BD0006000600060006000F8010000000000006C
:103BE000000000000000000000001E070C020C0294
:103BF0000C020C020C020C020C020C020C020C0255
:103C00000C020C020C021801F00000000000000081
:103C1000000000000000000000000F070602040181
:103C200004010C010C0188008800980098005000E5
:103C30005000700030002000200000000000000054
:103C400000000000000000000000F70E62044204C3
:103C50004604460464026402E402E4029C029C01FD
:103C60009801980188018800880000000000000089
:103C7000000000000000000000009E070C01080189
:103C800018019000B0006000200060006000D000CB
:103C900090008801080104038E0700000000000066
:103CA000000000000000000000000F0F06040402E6
:103CB0000C0208011801B800B0007000600060003C
:103CC0006000600060006000F8010000000000007B
:103CD00000000000000000000000FC070C020603CA
:103CE0000201800180004000400020002000100000
:103CF000180008040C040402FE0300000000000089
:103D000000000000E0032000200020002000200030
:103D100020002000200020002000200020002000A3
:103D2000200020002000200020002000E0030000F0
:103D3000000000000000000004000400080008006B
:103D40001000100010002000200040004000C000C3
:103D50008000800000010001000200020002000457
:103D6000000000007C004000400040004000400097
:103D70004000400040004000400040004000400043
:103D80004000400040004000400040007C00000037
:103D9000000060009000080100000000000000002A
:103DA0000000000000000000000000000000000013
:103DB0000000000000000000000000000000000003
:103DC00000000000000000000000000000000000F3
:103DD00000000000000000000000000000000000E3
:103DE0000000000000000000000000000000FF0FC5
:103DF000000000001800600000000000000000004B
:103E000000000000000000000000000000000000B2
:103E100000000000000000000000000000000000A2
:103E20000000000000000000000000000000000092
:103E300000000000F0010C030C030003E0031C036E
:103E40000E03060306038E0B7C0E0000000000002C
:103E5000000000000000000008000E000C000C0034
:103E60000C000C00CC013C031C060C060C060C06D6
:103E70000C060C060C021C03E4010000000000000C
:103E80000000000000000000000000000000000032
:103E900000000000F0008C018C0186010600060085
:103EA000060006020C020C01F000000000000000F9
:103EB00000000000000000000002C0030003000337
:103EC0000003000378038C030C03060306030603B8
:103ED0000603060304038C077801000000000000BD
:103EE00000000000000000000000000000000000D2
:103EF00000000000E001180308020C060C06FC0795
:103F00000C000C0018041802E00100000000000082
:103F100000000000000000000000C0036006300642
:103F200030003000FE013000300030003000300042
:103F30003000300030003000FC01000000000000C4
:103F40000000000000000000000000000000000071
:103F500000000000F007D8068C018C018C0198014C
:103F6000F8000C00FC00CC03060306038E03F800E7
:103F7000000000000000000008000E000C000C0013
:103F80000C000C00EC011C030C030C030C030C03D1
:103F90000C030C030C030C039E0700000000000040
:103FA0000000000000000000000060006000000051
:103FB000000040007C006000600060006000600065
:103FC0006000600060006000FC0300000000000072
:103FD00000000000000000000000C001C00100005F
:103FE00000000001F001800180018001800180015A
:103FF000800180018001800180018001CC007C0073
:10400000000000000000000008000E000C000C0082
:104010000C000C008C038C008C004C006C005C00CD
:104020008C008C010C010C039E07000000000000B6
:10403000000000000000000040007C006000600004
:104040006000600060006000600060006000600070
:104050006000600060006000FC03000000000000E1
:104060000000000000000000000000000000000050
:10407000000000003707EE0666066606660666065E
:104080006606660666066606FF0F00000000000072
:104090000000000000000000000000000000000020
:1040A00000000000EE011C030C030C030C030C03C6
:1040B0000C030C030C030C039E070000000000001F
:1040C00000000000000000000000000000000000F0
:1040D00000000000F00098010C0306060606060624
:1040E000060606060C030C03F000000000000000AA
:1040F00000000000000000000000000000000000C0
:1041000000000000EE011C030C060C060C060C0659
:104110000C060C060C031C03EC010C000C003E000A
:10412000000000000000000000000000000000008F
:104130000000000078028C030C030603060306034C
:104140000603060304038C03780300030003C0077F
:10415000000000000000000000000000000000005F
:10416000000000009F0358063806180018001800C9
:104170001800180018001800FF00000000000000E0
:10418000000000000000000000000000000000002F
:1041900000000000F0031C030C020C023800F000C9
:1041A000C003040304038C03FC01000000000000B2
:1041B00000000000000000000000000020002000BF
:1041C00030003000FE0130003000300030003000A0
:1041D0003000300030023002E0010000000000003A
:1041E00000000000000000000000000000000000CF
:1041F000000008028E030C030C030C030C030C03D9
:104200000C030C030C039C07780100000000000065
:10421000000000000000000000000000000000009E
:10422000000000001E070C020801080118019000A0
:10423000B000B0006000600020000000000000003E
:10424000000000000000000000000000000000006E
:1042500000000000F70E6204460464026402EC02EF
:104260009C019801980198010800000000000000DE
:10427000000000000000000000000000000000003E
:1042800000000000BC0718011001B00060006000D1
:10429000E0009000080108039E07000000000000F5
:1042A000000000000000000000000000000000000E
:1042B000000000009E07080108010801900090001E
:1042C000B0006000600060002000200024001C009E
:1042D00000000000000000000000000000000000DE
:1042E00000000000FC018401C400440060002000C4
:1042F0003000180208020C03FC010000000000005E
:10430000000000000003800080008000800080002A
:10431000800080008000400020004000800080007D
:10432000800080008000800080008000000300008A
:10433000400040004000400040004000400040007D
:10434000400040004000400040004000400040006D
:10435000400040004000400040004000400040005D
:10436000000000000C0010001000100010001000F1
:10437000100010001000200040002000100010006D
:104380001000100010001000100010000C000000C1
:1043900000001C002204C204800300000000000092
:1043A000000000000000000000000000000000000D
:1043B00000000000000000000000000000000000FD
:1043C00000000000000000000000000000000000ED
:1043D00000000000000000000000000000000000DD
:1043E00000000000000000000000000000000000CD
:1043F00000000000000000000000000000000000BD
:1044000000000000000000000000C001C001C00169
:10441000C001C001C001C001800080008000800098
:10442000800080008000000000000000000080018B
:10443000C003C00380010000000000000000000075
:10444000000000000000E01CE01CF01E700E3807A9
:1044500018030801840000000000000000000000B4
:10446000000000000000000000000000000000004C
:10447000000000000000000000000000000000003C
:1044800000000000000000000000000020102010CC
:10449000201020102010FE7FFE7F1008100810084A
:1044A0001008100810081008FE7FFE7F080408049A
:1044B00008040804080400000000000000000000D8
:1044C000000000000000000000010001C0076019AA
:1044D000103118311839183938017001E001C00362
:1044E0008007000F001D003900311C311C310C31D8
:1044F0000C11180DE0070001000100010000000090
:104500000000000000000000000000001C10361831
:104510006308630C63046304630263026301361D72
:104520009C37802280634063406320632063306354
:1045300010221836081C00000000000000000000D7
:10454000000000000000000000000000F0009801E2
:104550008C018C018C018C018C00CC007800183E01
:104560001C083608320863046304C304C30383438E
:1045700006438E26781C00000000000000000000AA
:104580000000000000001C003C003C003000300037
:1045900010000C00060000000000000000000000F9
:1045A000000000000000000000000000000000000B
:1045B00000000000000000000000000000000000FB
:1045C0000000000000000040002000100008000C67
:1045D0000004000600030003000380018001800145
:1045E000800180018001800180010003000300033D
:1045F00000060006000C000800100020004000002B
:10460000000000000000020004000800100030005C
:1046100020006000C000C000C00080018001800157
:1046200080018001800180018001C000C000C000C5
:10463000600060003000100008000400020000006C
:10464000000000000000000000000000000000006A
:1046500000018003800300011C713C79783DC00794
:104660000001C007783D3C791C7100018003800384
:1046700080010000000000000000000000000000B9
:10468000000000000000000000000000000000002A
:104690000000000100010001000100010001000113
:1046A000FC7F000100010001000100010001000188
:1046B00000000000000000000000000000000000FA
:1046C00000000000000000000000000000000000EA
:1046D00000000000000000000000000000000000DA
:1046E00000000000000000000000000000000000CA
:1046F0001C003C003C003000300010000C000600A4
:1047000000000000000000000000000000000000A9
:104710000000000000000000000000000000000099
:10472000FE7F00000000000000000000000000000C
:104730000000000000000000000000000000000079
:104740000000000000000000000000000000000069
:104750000000000000000000000000000000000059
:104760000000000000000000000000000000180031
:104770003C003C00180000000000000000000000A9
:104780000000000000000040006000200030001029
:1047900000180008000C00040006000200030001DD
:1047A00080018000C0004000600020003000100048
:1047B000180008000C0004000600020000000000C1
:1047C000000000000000000000000000C007600CB6
:1047D00030181830183018200C600C600C600C6019
:1047E0000C600C600C600C600C60182018301830E5
:1047F0003018600CC007000000000000000000003E
:104800000000000000000000000000000001800126
:10481000F801800180018001800180018001800118
:104820008001800180018001800180018001800180
:104830008001C003F81F000000000000000000001D
:10484000000000000000000000000000E007101C55
:104850000818043004300C300C3000300018000808
:1048600000040002000180004000202010200820E9
:104870000430FC1FFC1F00000000000000000000CE
:10488000000000000000000000000000E003180E1F
:104890000C0C0C180C180C180018000C0006C003A7
:1048A000000E00180010003000300C300C300C10DE
:1048B0000C18180CE00300000000000000000000CD
:1048C000000000000000000000000000000C000ECE
:1048D000000E000F800E800E400E600E200E100E97
:1048E000100E080E040E040EFE7F000E000E000EC9
:1048F000000E000E000EC07F00000000000000004F
:10490000000000000000000000000000F03FF03F49
:1049100010001000100008000800C807280C181824
:10492000081000300030003000300C300C3004181B
:104930000418080CF0030000000000000000000054
:10494000000000000000000000000000800FC01008
:10495000203010301800180008000C008C0F6C1864
:104960003C301C600C600C600C600C6018601820FF
:1049700030306018C0070000000000000000000098
:10498000000000000000000000000000F83FF83FB9
:104990001C100C08040804040004000200020001BA
:1049A00000010001800080008000C000C000C00045
:1049B000C000C000C00000000000000000000000B7
:1049C000000000000000000000000000E007300CC4
:1049D00018180C300C300C301C3038187008E007F8
:1049E000B007180E0C1C06380630063006300630AC
:1049F0000C18180CE003000000000000000000008C
:104A0000000000000000000000000000E0031804A7
:104A10000C080C1806100630063006300630063832
:104A20000C3C1836F03100300018001800180C0C3F
:104A30000C060C03F0010000000000000000000064
:104A40000000000000000000000000000000000066
:104A5000000000000000000000008001C003C0034F
:104A60008001000000000000000000000000800144
:104A7000C003C0038001000000000000000000002F
:104A80000000000000000000000000000000000026
:104A900000000000000000000000C000C000000096
:104AA0000000000000000000000000000000000006
:104AB0000000C000C00080008000400040000000F6
:104AC00000000000000000000000002000100008AE
:104AD0000004000600038001C000600030001800E0
:104AE0000C00180030006000C000800100030006C8
:104AF000000400080010002000000000000000007A
:104B000000000000000000000000000000000000A5
:104B100000000000000000000000FE7F0000000018
:104B2000000000000000FE7F000000000000000008
:104B30000000000000000000000000000000000075
:104B40000000000000000000000004000800100049
:104B500020006000C000800100030006000C001867
:104B600000300018000C000600038001C000600047
:104B700020001000080004000000000000000000F9
:104B800000000000000000000000C00730180830DE
:104B900008600C601C601C601C600030001C00067B
:104BA0000001800080008000800000000000800183
:104BB000C003C003800100000000000000000000EE
:104BC000000000000000000000000000C0076018A6
:104BD000103018200C2F8C4D864CC64CC64C664CA1
:104BE00066446644662666266615CC1C0C40082082
:104BF00018303018C007000000000000000000005E
:104C0000000000000000000000000001C001C00121
:104C1000C00140016003200320032003300610067A
:104C200010061006F80F080C080C080C0C0C0418E1
:104C3000041806181F7C000000000000000000009F
:104C4000000000000000000000000000FE07181C2B
:104C5000183818301830183018301818180CF80791
:104C6000181818301820186018601860186018603C
:104C700018301818FE0F00000000000000000000AF
:104C8000000000000000000000000000C0276038A5
:104C9000103018200C400C400400060006000600EE
:104CA000060006000600060006000C400C400C2022
:104CB00018303018C007000000000000000000009D
:104CC000000000000000000000000000FE03180EBD
:104CD00018181830183018301860186018601860EC
:104CE00018601860186018601860183018301810B4
:104CF0001818180EFE03000000000000000000005D
:104D0000000000000000000000000000FE3F18301E
:104D1000182018601840180018081808180CF80F08
:104D2000180C180818081800180018001840184027
:104D300018201830FE3F00000000000000000000B6
:104D4000000000000000000000000000FE7F18705E
:104D5000184018C018801800181018101818F81FDC
:104D6000181818101810180018001800180018004B
:104D7000180018007E000000000000000000000085
:104D8000000000000000000000000000C013701CC4
:104D9000101018100C200C2004000600060006005D
:104DA0000600060006FC063006300C300C301830C9
:104DB00018303008C00700000000000000000000AC
:104DC0000000000000000000000000003F7E0C1802
:104DD0000C180C180C180C180C180C180C180C18B3
:104DE000FC1F0C180C180C180C180C180C180C18AC
:104DF0000C180C183F7E00000000000000000000AE
:104E0000000000000000000000000000F81F80010A
:104E1000800180018001800180018001800180018A
:104E2000800180018001800180018001800180017A
:104E300080018001F81F0000000000000000000059
:104E4000000000000000000000000000E07F0006FD
:104E50000006000600060006000600060006000622
:104E60000006000600060006000600060006000612
:104E700000060006000600060E060E038E01FC006A
:104E80000000000000000000000000007E7C1818F8
:104E90001808180418061802180198019801D8017A
:104EA000B803380318071806180E180C181C181821
:104EB000183018307EFC00000000000000000000E8
:104EC0000000000000000000000000007E0018004C
:104ED0001800180018001800180018001800180012
:104EE0001800180018001800180018001840184082
:104EF00018201830FE3F00000000000000000000F5
:104F00000000000000000000000000001FF81C3836
:104F10001C381C381C3C3434343434343436743249
:104F20006432643264326431C431C431C431C43057
:104F3000C43084309FFC000000000000000000002E
:104F40000000000000000000000000001F7C1C109A
:104F50003C103410341074106410E410C410C411E8
:104F600084118413041304170416041E041C041C67
:104F7000041C04181F1800000000000000000000BE
:104F8000000000000000000000000000C003300C22
:104F9000181808100C300C300660066006600660B9
:104FA000066006600660066006600C200C30081083
:104FB0001818300CC00300000000000000000000C2
:104FC000000000000000000000000000FE0F1818A4
:104FD00018301860186018601860186018301818B9
:104FE000F80F180018001800180018001800180012
:104FF000180018007E000000000000000000000003
:10500000000000000000000000000000C003300CA1
:1050100018180C100C300C20066006600660066044
:1050200006600660066006600660E4612C331C3290
:105030001816300EC007004C007C0038000000003D
:10504000000000000000000000000000FE07181C27
:10505000183818301830183018301818180CF8078D
:1050600098031803180718061806180E180C180CC1
:10507000181C18187E7800000000000000000000D6
:10508000000000000000000000000000E0273038B1
:1050900018300C200C200C000C0018007800E003E5
:1050A000800F001E0038007000600460046008601B
:1050B00018303818C80F0000000000000000000081
:1050C000000000000000000000000000FC3F8C21F8
:1050D00084618241824180018001800180018001E0
:1050E00080018001800180018001800180018001B8
:1050F00080018001E00700000000000000000000C7
:105100000000000000000000000000003F7C0C10C8
:105110000C100C100C100C100C100C100C100C10AF
:105120000C100C100C100C100C100C100C100C109F
:1051300008083804E0030000000000000000000040
:105140000000000000000000000000003EF81820F1
:10515000182018203010301030103010600860080F
:105160006008E00CC004C004C00480038003800316
:1051700080030001000100000000000000000000AA
:10518000000000000000000000000000DFF3866166
:10519000862186218C210C218C238C138C138C135B
:1051A0004C1358125816580E380E380E380E300C54
:1051B00010041004100400000000000000000000B3
:1051C0000000000000000000000000007E3E180803
:1051D00038083004300470026002E001C001C001F0
:1051E000800180034003400720062006100C100CAD
:1051F000081808183E7C00000000000000000000B5
:105200000000000000000000000000007E7C1C1078
:10521000181018083008300C700460046002C002D6
:10522000C002C001800180018001800180018001F5
:1052300080018001E0070000000000000000000085
:10524000000000000000000000000000F83F1818F7
:105250000818040C040E00060007000380038001F8
:10526000C001C000E000600070003000382018204D
:105270001C100C18FE1F00000000000000000000C1
:10528000000000000000C03F40004000400040001F
:10529000400040004000400040004000400040000E
:1052A00040004000400040004000400040004000FE
:1052B00040004000400040004000C03F00000000AF
:1052C00000000000000000000000080018001800A6
:1052D000100030002000600060004000C00080002E
:1052E00080018001000100030002000600060004A6
:1052F000000C00080018001800100030002000000A
:10530000000000000000FC03000200020002000296
:10531000000200020002000200020002000200027D
:10532000000200020002000200020002000200026D
:1053300000020002000200020002FC030000000064
:105340000000000000008007C006200810100000C8
:10535000000000000000000000000000000000004D
:10536000000000000000000000000000000000003D
:10537000000000000000000000000000000000002D
:10538000000000000000000000000000000000001D
:10539000000000000000000000000000000000000D
:1053A00000000000000000000000000000000000FD
:1053B0000000000000000000000000000000FFFFEF
:1053C0000000000000007800C000000100000000A4
:1053D00000000000000000000000000000000000CD
:1053E00000000000000000000000000000000000BD
:1053F00000000000000000000000000000000000AD
:10540000000000000000000000000000000000009C
:1054100000000000000000000000F00318060C0C63
:105420000C0C000C800F700C1C0C0C0C060C060CE9
:10543000064C0C4FF838000000000000000000008F
:105440000000000000000000000010001E00180016
:1054500018001800180018001800180FD818383055
:10546000386018601860186018601860186018209C
:1054700038307818C8070000000000000000000065
:10548000000000000000000000000000000000001C
:1054900000000000000000000000C007700C181899
:1054A00018180C180C000C000C000C000C20182014
:1054B00018103008C00700000000000000000000C5
:1054C000000000000000000000000010001E001896
:1054D00000180018001800180018E01B301C1818DD
:1054E00018180C180C180C180C180C180C18081894
:1054F000181C307AE00900000000000000000000E5
:10550000000000000000000000000000000000009B
:1055100000000000000000000000C007300C181858
:1055200008100C300C30FC3F0C000C000C00182054
:1055300018107018C00700000000000000000000F4
:10554000000000000000000000000000003E80C3DA
:1055500080C0C0C0C000C000C000FC1FC000C000B0
:10556000C000C000C000C000C000C000C000C0003B
:10557000C000C000F80F00000000000000000000A4
:10558000000000000000000000000000000000001B
:1055900000000000000000000000C077306C101810
:1055A0001818181818181018300CF00718001800E0
:1055B000F00FF03F08700C600C600C603838E00FA2
:1055C0000000000000000000000010001E00180095
:1055D00018001800180018001800980FD818383054
:1055E000183018301830183018301830183018307B
:1055F000183018307EFC00000000000000000000A1
:105600000000000000000000000000008003800394
:1056100080030000000000000001F801800180010B
:105620008001800180018001800180018001800172
:1056300080018001F81F0000000000000000000051
:1056400000000000000000000000000000380038EA
:1056500000380000000000000010801F0018001833
:10566000001800180018001800180018001800187A
:1056700000180018001800180018180C1806F0037D
:105680000000000000000000000010001E001800D4
:1056900018001800180018001800183E180C1806FA
:1056A000180318019801D801380318071806180CB8
:1056B000181C18187E7C000000000000000000008C
:1056C000000000000000000000000001F80180015F
:1056D00080018001800180018001800180018001C2
:1056E00080018001800180018001800180018001B2
:1056F00080018001F81F0000000000000000000091
:105700000000000000000000000000000000000099
:1057100000000000000000000800EE1C9C338C31EB
:105720008C318C318C318C318C318C318C318C3191
:105730008C318C31DE7B0000000000000000000096
:105740000000000000000000000000000000000059
:10575000000000000000000010001E0FD8183830B4
:1057600018301830183018301830183018301830F9
:10577000183018307EFC000000000000000000001F
:105780000000000000000000000000000000000019
:1057900000000000000000000000C007701C103076
:1057A00018300C600C600C600C600C600C601830E1
:1057B00018303018C0070000000000000000000092
:1057C00000000000000000000000000000000000D9
:1057D000000000000000000010009E0F5818383034
:1057E0001820186018601860186018601860183069
:1057F00038307818980718001800180018007E0034
:105800000000000000000000000000000000000098
:1058100000000000000000000000C023303C1838E9
:1058200018300C300C300C300C300C300C30083090
:105830001838303CE033003000300030003000FCDD
:105840000000000000000000000000000000000058
:10585000000000000000000060007E3C60666061A7
:10586000E000E00060006000600060006000600038
:1058700060006000FE070000000000000000000063
:105880000000000000000000000000000000000018
:1058900000000000000000000000E0273038183051
:1058A000182018007000E003800F001C0430043042
:1058B0000C301C18EC0F000000000000000000007D
:1058C00000000000000000000000000000000000D8
:1058D000800080008000C000E000FC1FC000C0000D
:1058E000C000C000C000C000C000C000C000C02098
:1058F000C0208011000F0000000000000000000028
:105900000000000000000000000000000000000097
:10591000000000000000000010201E3C183018306D
:105920001830183018301830183018301830183037
:10593000183830F4E0130000000000000000000000
:105940000000000000000000000000000000000057
:10595000000000000000000000007E3C181818083D
:10596000380830043004700260026002E001C001B7
:10597000C001C00080000000000000000000000026
:105980000000000000000000000000000000000017
:1059900000000000000000000000DFF78E630C2311
:1059A0008C238C239813981358165816700E700E6B
:1059B000700E200420040000000000000000000021
:1059C00000000000000000000000000000000000D7
:1059D00000000000000000000000FC3E70087004A1
:1059E000E004C002C0018003800340076006200C71
:1059F000100C18183E7E000000000000000000009F
:105A00000000000000000000000000000000000096
:105A1000000000000000000000007E7C181818083C
:105A200030083008300460046004C002C002C002C4
:105A30008001800180018000800080004C003C00DB
:105A40000000000000000000000000000000000056
:105A500000000000000000000000FC1F0C0C040E01
:105A60000406000380038001C000E00070203020A5
:105A700038301C18FC1F000000000000000000006F
:105A800000000000000000300008000400040004D2
:105A900000040004000400040004000400040002E8
:105AA000800100020004000400040004000400045B
:105AB000000400040004000400040008003000009A
:105AC00000010001000100010001000100010001CE
:105AD00000010001000100010001000100010001BE
