:020000040800F2
:10000000E00700205101000863170008E914000808
:100010006117000881020008371F00080000000077
:10002000000000000000000000000000E9190008C6
:10003000830200080000000065170008EB190008A3
:100040006B0100086B0100086B0100086B010008E0
:100050006B0100086B0100086B0100086B010008D0
:100060006B0100086B0100086B0100086B010008C0
:100070006B0100086B0100086B0100086B010008B0
:100080006B0100086B0100086B0100086B010008A0
:100090006B0100086B0100086B0100086B01000890
:1000A0006B0100086B0100086B0100086B01000880
:1000B0006B0100086B0100086B0100086B01000870
:1000C0006B0100086B0100086B0100086B01000860
:1000D0006B0100086B0100086B0100086B01000850
:1000E0006B0100086B0100086B0100086B01000840
:1000F0006B0100086B0100086B0100086B01000830
:100100006B0100086B0100086B0100086B0100081F
:100110006B0100086B0100086B0100086B0100080F
:100120006B0100086B0100086B0100086B010008FF
:100130006B0100086B0100086B010008DFF80CD0B0
:1001400000F08CF800480047C11F0008E0070020BD
:100150000648804706480047FEE7FEE7FEE7FEE761
:10016000FEE7FEE7FEE7FEE7FEE7FEE7A91A000866
:100170003D0100082DE9F05F0546002092469B46B0
:1001800088460646814640241BE0284641464746AD
:10019000224600F053F853465A46C01A914110D3F4
:1001A00011461846224600F03AF82D1A67EB01086E
:1001B0004F4622460120002100F031F817EB0009DC
:1001C0004E41201EA4F10104DFDC484631462A4698
:1001D0004346BDE8F09F40EA01039B0703D009E0D6
:1001E00008C9121F08C0042AFAD203E011F8013B23
:1001F00000F8013B521EF9D27047D2B201E000F87C
:10020000012B491EFBD270470022F6E710B51346BA
:100210000A4604461946FFF7F0FF204610BD202A83
:1002200004DB203A00FA02F1002070479140C2F14D
:10023000200320FA03F3194390407047202A04DB7F
:10024000203A21FA02F00021704721FA02F3D0404F
:10025000C2F120029140084319467047064C074DF1
:1002600006E0E06840F0010394E807009847103486
:10027000AC42F6D3FFF766FF30210008502100089A
:10028000FEE7704772B6FEE770B5044600F0E6F888
:100290000546601C02D004480078044400F0DEF8F3
:1002A000401BA042FAD370BD040000202DE9FC4F92
:1002B000DFF884A1DFF880E10023012503244FF05B
:1002C0000F0C0AF1040BAEF1800EADE005FA03F756
:1002D00016EA07026FD04E68012E05D0022E03D019
:1002E000112E01D0122E17D1D0F808905E0004FA1A
:1002F00006F829EA08090096D1F80C8008FA06F8F1
:1003000048EA0908C0F808804668BE430F79C7F379
:1003100000179F4037434760C6684FEA430804FA16
:1003200008F7BE4301978F6807FA08F73743C7609D
:100330004E68022E01D0122E10D1DE0800EB860688
:100340000096366A5F074FEAD7690CFA09F7BE4391
:100350000F6907FA09F73743009E37620668019F65
:10036000BE430F7907F0030707FA08F73743076022
:100370004E68F60057D5314E23F003073E44B14690
:10038000B6689F074FEA17780CFA08F7BE43B0F13A
:10039000904F04D02A4FB84203D1012712E0002722
:1003A00010E0284FB84201D102270BE0264FB84297
:1003B00002D1032706E036E0244FB84201D10427DA
:1003C00000E0072707FA08F73743C9F80870DAF89A
:1003D00000605746D1F8048096435FEAC83800D5DC
:1003E00016433E60DBF800605F46D1F80480964318
:1003F0005FEA883800D516433E60DEF80060774635
:10040000D1F8048096435FEAC82800D516433E60C1
:10041000094F7C3F3E68D1F8048096435FEA882804
:1004200000D516433E605B1C0A681646DA407FF42E
:100430004DAFBDE8FC8F000080080058000001406F
:100440000004004800080048000C00480010004864
:100450000AB181617047816270470000014880687D
:100460007047000004000020014840687047000009
:1004700004000020024881680278114481607047BE
:1004800004000020094810B50168002441F480717F
:100490000160032000F04EF8002000F009F808B1D8
:1004A000012401E000F024F8204610BD004000586F
:1004B00070B50E4E054600243078A0B100F090FBD8
:1004C00031784FF47A72B2FBF1F1B0FBF1F000F049
:1004D000C9FE40B9102D06D200222946501E00F058
:1004E00009F8756000E00124204670BD040000207A
:1004F00070470000F0B40E4B1B680C46C3F3022398
:10050000C3F10705042D00D90425191D072901D2BF
:10051000002300E0DB1E012606FA05F1491E2140FA
:1005200099409E40761E16403143F0BC01F00CBD50
:100530000CED00E0064900F0070208684FF6FF03E3
:10054000184040EA0220034A104308607047000048
:100550000CED00E00000FA0501220168C0F8E82275
:10056000002280F8E02231F8540F40F001000880AA
:10057000088840F0020008801046704770B586B0C9
:10058000040004D094F8A902002518B107E0012066
:1005900006B070BD84F8A852204600F049F8032048
:1005A00084F8A902206801F0BEFC002001260EE0BC
:1005B00000EB800104EBC10181F8296001F8280FEC
:1005C000C881CD700D614D61401CC0B28D61616804
:1005D0008142EDD8002011E000EB800104EBC10165
:1005E00081F8695181F8680181F86B51C1F878513F
:1005F000C1F87C51401CC0B2C1F880516168814291
:10060000EAD8142204F110016846FFF7E4FD94E8EB
:100610000F0001F07FFC84F8245084F8A962E0699F
:10062000012802D12046FFF797FF0020B0E7000025
:1006300010B586B0044614216846FFF7E5FD13495E
:100640002068884220D14FF0B044E06C40F00100B7
:10065000E064E06C694600F0010005904FF4C05082
:100660000090022001900020029003900A20049044
:100670004FF09040FFF71AFEA06D40F08060A0653B
:10068000A06D00F08060059006B010BD00680040CD
:100690000248006800F4C060704700000004005881
:1006A0000248016841F480710160704700040058FD
:1006B000F8B50446FFF7D2FE06465CB194F8380060
:1006C000012809D0012784F8387094F839000025F2
:1006D00020B10BE00120F8BD0220F8BD84F83850AD
:1006E000204600F03DF841F288302064206801681F
:1006F000A2686FF0FF0321F4706103EB0222114343
:100700000160206C0090334600222021204601F039
:100710002AF8E8B921680A680F4B1A40237942EA9F
:100720000362E3681A430A60D4E9051211432268A0
:1007300053680A4E3340268A43EA06431943516000
:1007400021680A6842F001020A60E56384F83970A2
:1007500084F83850F8BD0000EFFFFF00FEF8E0FF1E
:1007600070B586B0044614216846FFF74DFD174961
:100770002068884228D14FF0B040016D41F480716B
:100780000165006D00F480700590022000F0B7FE56
:10079000012000F0B4FE4FF47060009002250024A8
:1007A000CDE901540A26CDE9034669460848FFF71A
:1007B0007DFDC0200090CDE90154CDE90346694696
:1007C0004FF09040FFF772FD06B070BD001000A022
:1007D000000400482DE9F0410446002700783E4619
:1007E00040064FF0B04517D5206B78B1B0F5800FBB
:1007F00007D0B0F5000F3BD0B0F5400F38D001273F
:1008000009E0E86840F48030E86031E0201D00F045
:10081000CEFF07002CD03E462088000546D5D5F8EF
:10082000900000F44076206CB0423ED0FFF738FFD5
:100830003EB3D5F89000D5F8901041F48031C5F85A
:100840009010D5F8901021F48031C5F89010216CEB
:1008500020F440700843C5F89000D5F8900010F0DF
:10086000010F22D0FFF7FAFD064641F2883818E062
:10087000206BD5F8881021F440010143C5F8881099
:10088000CAE7206CD5F8901021F440710143C5F8F7
:1008900090100AE0FFF7E2FD811B414501D90327D3
:1008A00003E000F051FE0128F4D13E462078C00755
:1008B00007D0A069D5F8881021F003010143C5F8DD
:1008C00088102078800707D5E069D5F8881021F4D2
:1008D00040610143C5F888102078C00602D5A06A9F
:1008E00000F092FE2078800602D5E06A00F08CFECF
:1008F0002078400702D5206A00F077FE20780007B4
:1009000002D5606A00F071FE2088C00513D5606BC7
:1009100000F062FE606BB0F1006F03D1E86840F058
:100920008070E860606BB0F1806F04D1201D00F032
:1009300078FF00B10646208880051BD5A06BB0F17A
:10094000804F10D0B0F1004F0DD060B120F0805733
:10095000002000F064FE384600F03EFEA06BB0F1CF
:10096000C05F03D006E000F05AFEF7E7E86840F009
:100970008070E8602088400518D5E06BD5F88810B5
:1009800021F040510143C5F88810E06BB0F1005FE1
:1009900003D1E86840F48030E860E06BB0F1805F3C
:1009A00004D1201D00F077FF00B106462088C00466
:1009B00007D5606CD5F8941021F440410143C5F887
:1009C0009410208880040BD5E06C696A21F0300116
:1009D00001436962A06C696A21F003010143696205
:1009E0003046BDE8F08100002DE9F0410F460500DA
:1009F00077D0794E306800F00700B84212D23068E4
:100A000020F0070038433060FFF728FD044604E07B
:100A1000FFF724FD001B02287DD8306800F0070096
:100A2000B842F5D128784FF0B044800715D5A868B2
:100A3000A16821F0F0010143A160FFF70FFD80469E
:100A400006E000BFFFF70AFDA0EB0800022862D80D
:100A5000A068C0F300400028F4D02878800617D59D
:100A60006869D4F8081121F0F0010143C4F80811B5
:100A7000FFF7F4FC804605E0FFF7F0FCA0EB080070
:100A8000022848D8D4F80801C0F340400028F3D029
:100A90002878400618D5A869D4F8081121F00F016C
:100AA00041EA1010C4F80801FFF7D8FC804605E0C1
:100AB000FFF7D4FCA0EB080002287CD8D4F808018A
:100AC000C0F300400028F3D02878400715D5E86827
:100AD000A16821F4E0610143A160FFF7BFFC8046FB
:100AE00006E046E0FFF7BAFCA0EB0800022862D857
:100AF000A068C0F340400028F4D02878000716D53D
:100B00002869A16821F4605141EAC001A160FFF7A2
:100B1000A5FC804606E04EE0FFF7A0FCA0EB080035
:100B2000022848D8A068C0F380400028F4D0287874
:100B3000C0072CD06868022805D0032806D0A8B1C9
:100B400000F0F3FC05E000F0EAFC02E02068C0F3EE
:100B5000406070B16868A16821F003010143A160A1
:100B6000FFF77CFC044641F288380AE000F003FD00
:100B7000EFE70120BDE8F081FFF770FC011B414564
:100B800019D800F0C6FC6968B0EB810FF4D1306869
:100B900000F00700B84215D9306820F0070038434C
:100BA0003060FFF75BFC044607E000BFFFF756FC30
:100BB000001B022801D90320DCE7306800F00700A1
:100BC000B842F3D100F00CF804490860FFF74CFC80
:100BD000BDE8F041FFF76CBC004000581000002059
:100BE00010B500F033F84FF0B0418968044A01F0C5
:100BF000F00102EB91010968B0FBF1F010BD0000BB
:100C00009020000810B5FFF7EBFF4FF0B041896866
:100C1000044A01F4E06102EB9111097801F01F012F
:100C2000C84010BD1021000810B5FFF7D9FF4FF0E4
:100C3000B0418968044A01F4605102EB51210978FE
:100C400001F01F01C84010BD102100082DE9F0413E
:100C500000F05FFC204F38B3204C04282CD06600F5
:100C60004FF0B045082829D000F0B0FC022808D089
:100C700003282AD000F076FC00F0F00007EB90008B
:100C80000468E868E968C0F30620604301F0700278
:100C9000012101EB1212B0FBF2F2E86801EB507097
:100CA000B2FBF0F0BDE8F08100F05CFC00F0F00079
:100CB00007EB90000068F5E72046F3E72868C0F3EB
:100CC00000500028F8D13046ECE72868C0F3005007
:100CD0000028D6D13446D4E7D02000080024F40000
:100CE0002DE9F04104007DD020784FF0B04580061A
:100CF00061D500F00EFC064600F068FC76B10C2EC3
:100D000001D101280AD0E0690028286842D040F0CB
:100D100001002860FFF7A2FB064630E000F02BFC44
:100D200010B1E0690028DED000F01CFC0146606ACA
:100D300081420AD200F032FE002853D1606A00F0EE
:100D400029FC206A00F01DFC09E000F023FC206A69
:100D500000F017FC606A00F021FE0028EDD1FFF7DB
:100D60003FFFF7490860F7480068FFF7A1FB00283C
:100D7000E3D120E0FFF772FB801B022874D800F05B
:100D8000FAFB0028F6D0606A00F004FC206A00F04C
:100D9000F8FB10E020F001002860FFF75FFB06463B
:100DA00005E000BFFFF75AFB801B0228E6D800F0E1
:100DB000E2FB0028F6D12078C0073CD000F0A9FB68
:100DC000064600F003FC082E13D00C2E01D1032898
:100DD0000FD06068B0F5803F286811D020F48030D3
:100DE000286000E008E26068C0B1FFF737FB064604
:100DF0000FE000F094FBF0B16068002893D01AE097
:100E000040F48030ECE700BFFFF728FB801B64282C
:100E1000B4D800F084FB0028F6D00CE0FFF71EFBEE
:100E2000064604E0FFF71AFB801B6428A6D800F0F2
:100E300076FB0028F6D1207880073CD500F069FBCE
:100E4000064600F0C3FB042E0FD00C2E01D1022861
:100E50000BD0E068002828681CD040F4807028601F
:100E6000FFF7FCFA064610E03AE100F05EFB10B135
:100E7000E0680028C2D0206900F05DFB1BE000BFE5
:100E8000FFF7ECFA801B022890D800F04EFB0028F8
:100E9000F6D0F0E720F480702860FFF7DFFA06460E
:100EA00005E000BFFFF7DAFA801B0228B0D800F097
:100EB0003CFB0028F6D12068010701D4C1064ED5BD
:100EC0006169E1B3C0064BD500F045FB98B9D5F890
:100ED000940040F00100C5F89400FFF7BFFA064601
:100EE00005E000BFFFF7BAFA801B022890D800F097
:100EF00032FB0028F6D0D5F8940040F00400C5F885
:100F00009400FFF7ABFA064605E000BFFFF7A6FA2C
:100F1000801B03288AD8D5F89400C0F3C0000028AD
:100F2000F4D0A069D5F8941021F4706141EA002052
:100F3000C5F89400D5F8940020F0010000E035E0F9
:100F4000C5F89400FFF78AFA064604E0FFF786FA30
:100F5000801B022898D800F0FEFA0028F6D14EE057
:100F6000D5F8940040F00100C5F89400FFF776FA38
:100F7000064604E0FFF772FA801B022884D800F0CE
:100F8000EAFA0028F6D0D5F8940020F00400C5F85D
:100F9000940004E0FFF762FA801B032886D8D5F896
:100FA0009400C0F3C0000028F4D128E0D5F89400E4
:100FB00020F00400C5F89400FFF750FA064604E05C
:100FC000FFF74CFA801B032890D8D5F89400C0F3A3
:100FD000C0000028F4D1D5F8940020F00100C5F835
:100FE0009400FFF73BFA064605E000BFFFF736FA2C
:100FF000801B022874D800F0AEFA0028F6D12078C1
:10100000400750D5504F3868C0050DD4FFF748FB56
:10101000FFF724FA064604E0FFF720FA801B0228B7
:101020005ED83868C005F7D5A068012816D0052815
:10103000D5F8900017D020F00100C5F89000D5F841
:10104000900020F0040000BFC5F89000A06841F2B5
:101050008836C8B1FFF702FA07460EE0D5F89000CF
:1010600040F00100F0E740F00400C5F89000F5E71B
:10107000FFF7F4F9C01BB04232D8D5F89000C0F3A6
:1010800040000028F4D00EE0FFF7E8F9074604E03E
:10109000FFF7E4F9C01BB04222D8D5F89000C0F3A6
:1010A00040000028F4D1207840062ED5A06A002800
:1010B000D5F8980015D040F00100C5F89800FFF76A
:1010C000CDF9064605E000BFFFF7C8F9801B0228EE
:1010D00006D8D5F89800C0F340000028F4D014E0FA
:1010E00089E020F00100C5F89800FFF7B7F906463F
:1010F00005E000BFFFF7B2F9801B02287BD8D5F8C6
:101100009800C0F340000028F4D1E06AF0B300F08A
:1011100000FA0146E868E26A022A19D00C296BD06D
:10112000286820F080702860E86820F00300E860FC
:10113000E86806490840E860FFF790F9044687E050
:10114000100000200800002000040058FFFFFEEE01
:10115000236B00F003029A421AD1636B00F0700215
:101160009A4215D1A26BC0F306239A4210D1E36BC9
:1011700000F478129A420BD1236C00F060629A421C
:1011800006D1626C00F06040904200E056E03ED034
:101190000C2962D0286840015FD4286820F0807054
:1011A0002860FFF75BF9064605E000BFFFF756F938
:1011B000801B022849D828688001F7D4D4E90C01A3
:1011C0000843D4E90E2141EA02210843216C084377
:1011D000616C0843E968224A11400843E8602868C6
:1011E00040F080702860E86840F08050E860FFF7C9
:1011F00035F9044607E028E02FE000BFFFF72EF99D
:10120000001B022821D828688001F7D523E0286830
:10121000800120D4286840F080702860E86840F0A1
:101220008050E860FFF71AF9044604E0FFF716F96A
:10123000001B022809D828688001F7D50BE000BF01
:10124000FFF70CF9001B022802D90320BDE8F0814A
:1012500028688001F4D40020F8E70120F6E70000B8
:101260008C80C11110B5401EB0F1807F01D30120E8
:1012700010BD4FF0E02460610F21601700F064FEA4
:101280000020A06107202061002010BD90F8801090
:10129000012918D0012180F880102421C0F8841081
:1012A00050F8641B0A680B6823F001030B6022F0FE
:1012B00000510022026050F8643C19602021016254
:1012C0000277104670470220704770B5044690F8C8
:1012D000800001281DD0012084F880002420C4F85B
:1012E000840020680568026822F00102026020681C
:1012F000826822F060620A438260204600F002FCAD
:10130000206805602020C4F88400002084F8800054
:1013100070BD022070BD70B5044690F880000128B1
:101320001DD0012084F880002420C4F884002068A7
:101330000568026822F0010202602068826822F0DB
:1013400060420A438260204600F0DCFB20680560B2
:101350002020C4F88400002084F8800070BD0220A2
:1013600070BD10B5040003D0D4F8840010B107E0BC
:10137000012010BD002084F88000204600F026F8EF
:101380002420C4F884002068016821F00101016074
:10139000204600F06DFC0128EBD0A06A10B1204679
:1013A00000F0D2FB2068416821F490414160206840
:1013B000816821F02A0181602068016841F0010103
:1013C00001602046BDE8104000F022BC10B586B098
:1013D000044614216846FEF717FF12492068884228
:1013E0001ED14FF0B040C16D41F00101C165C16D2A
:1013F00001F001010591C16C41F00401C164C06CB0
:10140000694600F00400059003200090022001903E
:10141000002002900390082004900348FEF746FF46
:1014200006B010BD00800040000800482DE9F843D8
:101430000446D0F884001F4616460D46202851D198
:10144000DDB1D6B194F8800001284BD0012084F89A
:1014500080004FF00008C4F88C802120C4F884007C
:101460001834FEF7FBFFA6878146E68754F8100C78
:10147000183CB0F5805F03D004E00120BDE8F8839C
:10148000206920B12E46002584F8808010E00026D7
:10149000FAE78021204600F0EBFCB8B9C6B116F897
:1014A000010B21688862B4F85600401EA4F856006B
:1014B000B4F856004B464FF0000200970028E8D1E0
:1014C0004FF04001204600F0D3FC30B10320D5E7B7
:1014D00035F8020BC0F30800E3E72020C4F88400CD
:1014E0000020CBE70220C9E7FEE708B54FF0B04186
:1014F000CA6C0243CA64C96C0140009108BD08B5BA
:101500004FF0B041CA6C0243CA64C96C01400091FB
:1015100008BD4FF0B040806800F00C0070474FF0FD
:10152000B0400068C0F3404070474FF0B0400068E2
:10153000C0F3802070474FF0B0414A6822F0FE426D
:1015400042EA0060486070474FF0B040D0F8900029
:10155000C0F3400070474FF0B040D0F89400C0F3A3
:10156000400070474FF0B040006800F0F000B02835
:1015700000D9B02070474FF0B0400068C0F3400081
:1015800070474FF0B0414A6822F47F4242EA00209F
:10159000486070474FF0B0410A6822F0F002024301
:1015A0000A6070474FF0B040016821F0806101602F
:1015B00070474FF0B040016841F0806101607047B2
:1015C0004FF0B0400068C0F3C06070474FF0B040CB
:1015D000C06800F0030070474FF0B04151F8882F09
:1015E00022F0406202430A60704710B54FF0B041EC
:1015F00051F8883F4FF47F2202EA1014A34302EA15
:10160000001003430B6010BD4FF0B04151F8882F1C
:10161000030C1B049A4342EA0040086070474FF0F5
:10162000B04151F8882F22F0404202430A607047CF
:1016300030B585B014216846FEF7E6FD0420FFF7BB
:1016400054FF0220FFF751FF0120FFF74EFF0E4D20
:10165000012230212846FEF7FBFE302000900120B9
:101660000024CDE90104694628460394FEF71EFED6
:101670004FF48050CDE90004694628460294FEF7F5
:1016800015FE05B030BD000000080048184810B530
:10169000164901604FF4E1314160002181600C2264
:1016A000C160C0E9041281610162416281624166E8
:1016B000FFF757FE08B1FEF7E5FD00210C48FFF7E4
:1016C0002AFE08B1FEF7DEFD00210948FFF7FDFD07
:1016D00008B1FEF7D7FD0648FFF7D8FD002803D074
:1016E000BDE81040FEF7CEBD10BD000000800040F8
:1016F000180000200B4810B509490160FF210122A4
:10170000C0E901120021C0E9031241618161FEF7C5
:10171000CFFF002803D0BDE81040FEF7B3BD10BDD9
:10172000001000A0A80000200C4810B50A49016074
:1017300008214160022181600161002141618161D4
:10174000C1610162FEF71AFF002803D0BDE8104016
:10175000FEF798BD10BD000000680040EC000020BE
:10176000FEE7FEE770472DE9F041984616460F4622
:101770000446069D08E0681C06D0FEF76FFEA0EB4D
:101780000800A8420AD84DB120688068384000D0CF
:101790000120B042EFD10020BDE8F081042084F8A0
:1017A0003900E06B40F00100E0630120F4E72DE92F
:1017B000F04106460025FFF7F5FEFEF74FFE044612
:1017C00004E0FEF74BFE001B02281DD8FFF7F8FED1
:1017D0000028F6D14FF0B0442069316820F4FE4073
:1017E00040EA012020612069716820F478100843E4
:1017F0002061FFF7DEFEFEF731FE074606E0FEF74A
:101800002DFEC01B022801D9032507E0FFF7D8FEF3
:101810000128F4D120693169084320612846BDE8D8
:10182000F0812DE9F04106460025FFF7BBFEFEF7EB
:1018300015FE044604E0FEF711FE001B02281DD829
:10184000FFF7BEFE0028F6D14FF0B04420693168A2
:1018500020F4FE4040EA012020612069B16820F0B8
:10186000606008432061FFF7A4FEFEF7F7FD07461E
:1018700006E0FEF7F3FDC01B022801D9032507E0AF
:10188000FFF79EFE0128F4D12069316908432061E9
:101890002846BDE8F0812DE9F04106460025FFF716
:1018A00081FEFEF7DBFD044604E0FEF7D7FD001BDA
:1018B00002281DD8FFF784FE0028F6D14FF0B0446F
:1018C0002069316820F4FE4040EA0120206120694F
:1018D000F16820F0604008432061FFF76AFEFEF7E0
:1018E000BDFD074606E0FEF7B9FDC01B022801D981
:1018F000032507E0FFF764FE0128F4D12069316970
:10190000084320612846BDE8F081000070B5214AF7
:101910008EB00DF1100C78CA8CE8780038CA08AE89
:1019200086E838003CCA8DE83C000024B1F5007F11
:101930006A46214607D008AB53F8215085420BD3A5
:1019400052F821400BE004AB53F821508542F7D206
:10195000491C0429F8D302E0491C0329ECD30E4E9C
:10196000306820F0070020433060FEF777FD054621
:1019700008E000BFFEF772FD401B022802D90320D9
:101980000EB070BD306800F00700A042F2D1002018
:10199000F6E70000642000080040005810B50F4929
:1019A000B02801D9C86A03E03C2202EA9000085836
:1019B0004FF0B041D1F80811094A01F00F0152F877
:1019C0002110B0FBF1F4FEF763FE01460548B4FBBD
:1019D000F0F0BDE81040FFF799BF0000D0200008EC
:1019E0009020000840420F007047FEF743BD000002
:1019F00030B5AFB048216846FEF706FC1C2126A88A
:101A0000FEF702FC502112A8FEF7FEFB25480168F4
:101A100021F4C06141F40071016000680BA900F479
:101A2000C0602D90432000904FF480300190001250
:101A3000039001200A9040200490022003241025E6
:101A400081E8310008200E9080030F900003119070
:101A5000001110906846FFF743F908B172B6FEE72F
:101A60006F20CDE9260400248020CDE92A40289467
:101A70002994032126A82C94FEF7B6FF08B172B66C
:101A8000FEE742F202101F941290199412A8CDE9B9
:101A90002445FEF79FFE002801D072B6FEE72FB066
:101AA00030BD0000000400581348016841F4700183
:101AB00001604FF0B040016841F0010101604FF456
:101AC000E021816001680D4A11400160D0F8941056
:101AD00021F00501C0F89410D0F8981021F0010110
:101AE000C0F898100649C1600161016821F48021A5
:101AF000016000218161704788ED00E0FBFEF6FA8D
:101B00000010042230B5416EB9B102689168926844
:101B1000C1F342610B4B520F9C5CE50003F10804DA
:101B2000A25CB5FBF2F2A0F86A205A5C615CD200BC
:101B3000B2FBF1F1A0F8681030BD0121A0F86A10E5
:101B4000F8E700005420000890F82810C90706D0D4
:101B500001684A68C36A22F400321A434A6090F866
:101B60002810890706D501684A68036B22F4803281
:101B70001A434A6090F82810490706D501684A6858
:101B8000436B22F480221A434A6090F82810090718
:101B900006D501684A68836B22F400421A434A6002
:101BA00090F82810C90606D501688A68C36B22F42C
:101BB00080521A438A6090F82810890606D5016879
:101BC0008A68036C22F400521A438A6090F8281045
:101BD000490611D501684A68436C22F480121A4301
:101BE0004A60416CB1F5801F06D101684A68836C78
:101BF00022F4C0021A434A6090F82810090606D55C
:101C000001684A68C06C22F4002202434A607047AF
:101C1000F8B500260446C0F88C60FEF71FFC0546A8
:101C2000206800686FF07E47000708D52B46002229
:101C30004FF400112046009700F01AF960B92068AF
:101C4000006840070AD52B4600224FF48001204649
:101C5000009700F00DF908B10320F8BD2020C4F86A
:101C60008400C4F8880044F86C6F00202675F8BD25
:101C70002DE9F041044600682269A168E669114334
:101C80006269002532431143724B0268724E324042
:101C90000A43026020684168E26821F44051114320
:101CA00041602168A069994201D0226A10438A6884
:101CB0006A4E324002438A602068C16A626A21F03B
:101CC0000F011143C1626649D4F800C04FF0B04023
:101CD0008C450DD1D0F8880010F0030006D0012803
:101CE0001DD0022819D003281BD112E0012119E0D0
:101CF0009C4516D1D0F888004FF4406110F4406044
:101D000009D0B0F5806F0AD0B0F5006F05D08842D9
:101D100007D1082106E0002104E0022102E00421AD
:101D200000E010214F4A504F00264FF400409C45E0
:101D300031D131B1022907D0042907D008297AD13D
:101D400007E0FEF75FFF03E0104602E0FEF77EFFCC
:101D500078B3616A37F811206768B0FBF2F107EBDE
:101D600047038B4267D8B1EB073F64D8002319467D
:101D7000FEF700FA090241EA106102027808101821
:101D800071413A460023FEF7F5F9384AA0F5407153
:101D9000914252D94FE0E3694FF6EF7883422AD15E
:101DA000012907D0022908D0042908D0082942D1E6
:101DB00008E041E0FEF738FF03E0104602E0FEF7DE
:101DC00045FFC8B3616A37F81110B0FBF1F041006C
:101DD000606801EB5001B1FBF0F080B2A0F110019E
:101DE000414528D84FF6F0710140C0F3420001434D
:101DF0002068C16023E0012906D0022907D0042908
:101E000007D0082917D107E0FEF70EFF03E01046C0
:101E100002E0FEF71BFF78B1616A37F81110B0FBE2
:101E2000F1F1606801EB5001B1FBF0F080B2A0F17C
:101E30001001414501D9012501E02168C860012058
:101E4000A4F86A0024F8680F2846A660E660BDE89A
:101E5000F081000000800040F369FFCFFFF4FF1124
:101E6000003801400024F4003C200008FFFC0F0073
:101E70002DE9F0479A4617460E4604464FF00009F2
:101E80004FF02008089D39E0681C37D0FEF7E6FACD
:101E9000A0EB0A00A84222D80DB3206801684907C8
:101EA0002CD5C069C043000528D421684FF40060D8
:101EB00008622068016821F4D0710160206881689F
:101EC00021F001018160C4F88480C4F88880C4F8DE
:101ED0008C8000BF84F880900320BDE8F0872068E4
:101EE000016821F4D07101602068816821F001014E
:101EF0008160C4F88480C4F88880EBE72068C069FA
:101F000036EA000004D00020B842BDD00020E4E74B
:101F10000120F9E7012120F8401F00210180818084
:101F200001820846704730F8401F4BF6807291439B
:101F3000018000207047FEE7014A024900F023B803
:101F4000A91F0008140000200907090E002804DB5F
:101F500000F1E02080F80014704700F00F0000F15D
:101F6000E02080F8141D704702E008C8121F08C165
:101F7000002AFAD170477047002001E001C1121F0A
:101F8000002AFBD170472DE9F04116460F46044662
:101F9000002503E03946B047641C6D1C20780028FA
:101FA000F8D12846BDE8F08113B54FF47A730122C9
:101FB00069460248FFF73AFA00981CBD1800002055
:101FC000FEF760FAFFF714FDFFF732FBFFF75EFB49
:101FD000FFF790FBFFF7A8FB114D4FF4FA7411A027
:101FE000FFF7AAFF002210212846FEF731FA01224E
:101FF00020212846FEF72CFA2046FEF745F90CA0D2
:10200000FFF79AFF012210212846FEF721FA00224D
:1020100020212846FEF71CFA2046FEF735F9DEE7B8
:1020200000080048BAECC9ABC1C10D0A00000000AD
:10203000C2CCC9ABC1C10D0A000000000100020002
:102040000400060008000A000C00100020004000F8
:1020500080000001010101030701000008040204DF
:1020600008010101120000002400000036000000F9
:1020700040000000060000000C00000010000000FE
:10208000000000000100000002000000030000004A
:102090000100000003000000050000000100000036
:1020A00001000000060000000A00000020000000FF
:1020B0000200000004000000080000001000000002
:1020C000400000008000000000010000000200004D
:1020D000A0860100400D0300801A060000350C00A8
:1020E00040420F0080841E0000093D0000127A006B
:1020F0000024F40000366E010048E801006CDC02A8
:1021000000000000000000000000000000000000CF
:1021100000000000000000000000000000000000BF
:1021200001000000020000000300000004000000A5
:10213000502100080400002014000000681F00085F
:102140006421000818000020C8070000781F00085C
:1021500001000000100000000000000000093D0028
:04216000000000007B
:040000050800013DB1
:00000001FF
